{
  "_format": "hh-sol-artifact-1",
  "contractName": "Composable",
  "sourceName": "contracts/Composable.sol",
  "abi": [
    {
      "inputs": [
        {
          "internalType": "string",
          "name": "_bURI",
          "type": "string"
        },
        {
          "internalType": "string",
          "name": "_eURI",
          "type": "string"
        }
      ],
      "stateMutability": "nonpayable",
      "type": "constructor"
    },
    {
      "inputs": [],
      "name": "IsNotRemoteTokenOwner",
      "type": "error"
    },
    {
      "inputs": [],
      "name": "invalidAddress",
      "type": "error"
    },
    {
      "inputs": [],
      "name": "invalidFeature",
      "type": "error"
    },
    {
      "inputs": [],
      "name": "invalidTokenId",
      "type": "error"
    },
    {
      "inputs": [],
      "name": "isNotTokenOwner",
      "type": "error"
    },
    {
      "inputs": [],
      "name": "isSoulbound",
      "type": "error"
    },
    {
      "inputs": [],
      "name": "withdrawFailed",
      "type": "error"
    },
    {
      "anonymous": false,
      "inputs": [
        {
          "indexed": true,
          "internalType": "address",
          "name": "owner",
          "type": "address"
        },
        {
          "indexed": true,
          "internalType": "address",
          "name": "approved",
          "type": "address"
        },
        {
          "indexed": true,
          "internalType": "uint256",
          "name": "tokenId",
          "type": "uint256"
        }
      ],
      "name": "Approval",
      "type": "event"
    },
    {
      "anonymous": false,
      "inputs": [
        {
          "indexed": true,
          "internalType": "address",
          "name": "owner",
          "type": "address"
        },
        {
          "indexed": true,
          "internalType": "address",
          "name": "operator",
          "type": "address"
        },
        {
          "indexed": false,
          "internalType": "bool",
          "name": "approved",
          "type": "bool"
        }
      ],
      "name": "ApprovalForAll",
      "type": "event"
    },
    {
      "anonymous": false,
      "inputs": [
        {
          "indexed": false,
          "internalType": "string",
          "name": "baseURI",
          "type": "string"
        }
      ],
      "name": "BaseURISet",
      "type": "event"
    },
    {
      "anonymous": false,
      "inputs": [
        {
          "indexed": false,
          "internalType": "string",
          "name": "externalURI",
          "type": "string"
        }
      ],
      "name": "ExternalURISet",
      "type": "event"
    },
    {
      "anonymous": false,
      "inputs": [
        {
          "indexed": true,
          "internalType": "uint256",
          "name": "tokenId",
          "type": "uint256"
        },
        {
          "indexed": true,
          "internalType": "bytes32",
          "name": "featureHash",
          "type": "bytes32"
        }
      ],
      "name": "FeatureConfigured",
      "type": "event"
    },
    {
      "anonymous": false,
      "inputs": [
        {
          "indexed": true,
          "internalType": "bytes32",
          "name": "featureHash",
          "type": "bytes32"
        }
      ],
      "name": "FeatureDisabled",
      "type": "event"
    },
    {
      "anonymous": false,
      "inputs": [
        {
          "indexed": true,
          "internalType": "bytes32",
          "name": "featureHash",
          "type": "bytes32"
        }
      ],
      "name": "FeatureEnabled",
      "type": "event"
    },
    {
      "anonymous": false,
      "inputs": [
        {
          "indexed": true,
          "internalType": "address",
          "name": "previousOwner",
          "type": "address"
        },
        {
          "indexed": true,
          "internalType": "address",
          "name": "newOwner",
          "type": "address"
        }
      ],
      "name": "OwnershipTransferred",
      "type": "event"
    },
    {
      "anonymous": false,
      "inputs": [
        {
          "indexed": true,
          "internalType": "address",
          "name": "from",
          "type": "address"
        },
        {
          "indexed": true,
          "internalType": "address",
          "name": "to",
          "type": "address"
        },
        {
          "indexed": true,
          "internalType": "uint256",
          "name": "tokenId",
          "type": "uint256"
        }
      ],
      "name": "Transfer",
      "type": "event"
    },
    {
      "inputs": [
        {
          "internalType": "address",
          "name": "to",
          "type": "address"
        },
        {
          "internalType": "uint256",
          "name": "tokenId",
          "type": "uint256"
        }
      ],
      "name": "approve",
      "outputs": [],
      "stateMutability": "nonpayable",
      "type": "function"
    },
    {
      "inputs": [
        {
          "internalType": "address",
          "name": "owner",
          "type": "address"
        }
      ],
      "name": "balanceOf",
      "outputs": [
        {
          "internalType": "uint256",
          "name": "",
          "type": "uint256"
        }
      ],
      "stateMutability": "view",
      "type": "function"
    },
    {
      "inputs": [],
      "name": "baseURI",
      "outputs": [
        {
          "internalType": "string",
          "name": "",
          "type": "string"
        }
      ],
      "stateMutability": "view",
      "type": "function"
    },
    {
      "inputs": [
        {
          "internalType": "uint256",
          "name": "_tokenId",
          "type": "uint256"
        },
        {
          "internalType": "bytes32[]",
          "name": "_featureHashes",
          "type": "bytes32[]"
        }
      ],
      "name": "clearFeatures",
      "outputs": [],
      "stateMutability": "nonpayable",
      "type": "function"
    },
    {
      "inputs": [
        {
          "internalType": "uint256",
          "name": "_tokenId",
          "type": "uint256"
        },
        {
          "components": [
            {
              "internalType": "bytes32",
              "name": "_featureHash",
              "type": "bytes32"
            },
            {
              "internalType": "contract IERC721",
              "name": "_remoteContractAddr",
              "type": "address"
            },
            {
              "internalType": "uint256",
              "name": "_remoteTokenId",
              "type": "uint256"
            }
          ],
          "internalType": "struct ConfigData[]",
          "name": "inputData",
          "type": "tuple[]"
        }
      ],
      "name": "configureFeatures",
      "outputs": [],
      "stateMutability": "nonpayable",
      "type": "function"
    },
    {
      "inputs": [
        {
          "internalType": "bytes32[]",
          "name": "_featureHashes",
          "type": "bytes32[]"
        }
      ],
      "name": "disableFeatures",
      "outputs": [],
      "stateMutability": "nonpayable",
      "type": "function"
    },
    {
      "inputs": [
        {
          "components": [
            {
              "internalType": "bytes32",
              "name": "featureHash",
              "type": "bytes32"
            },
            {
              "internalType": "uint160",
              "name": "layer",
              "type": "uint160"
            },
            {
              "internalType": "uint24",
              "name": "x",
              "type": "uint24"
            },
            {
              "internalType": "uint24",
              "name": "y",
              "type": "uint24"
            },
            {
              "internalType": "uint24",
              "name": "w",
              "type": "uint24"
            },
            {
              "internalType": "uint24",
              "name": "h",
              "type": "uint24"
            }
          ],
          "internalType": "struct FeatureData[]",
          "name": "_featureData",
          "type": "tuple[]"
        }
      ],
      "name": "enableFeatures",
      "outputs": [],
      "stateMutability": "nonpayable",
      "type": "function"
    },
    {
      "inputs": [
        {
          "internalType": "uint256",
          "name": "",
          "type": "uint256"
        }
      ],
      "name": "enabledFeatures",
      "outputs": [
        {
          "internalType": "bytes32",
          "name": "featureHash",
          "type": "bytes32"
        },
        {
          "internalType": "uint160",
          "name": "layer",
          "type": "uint160"
        },
        {
          "internalType": "uint24",
          "name": "x",
          "type": "uint24"
        },
        {
          "internalType": "uint24",
          "name": "y",
          "type": "uint24"
        },
        {
          "internalType": "uint24",
          "name": "w",
          "type": "uint24"
        },
        {
          "internalType": "uint24",
          "name": "h",
          "type": "uint24"
        }
      ],
      "stateMutability": "view",
      "type": "function"
    },
    {
      "inputs": [],
      "name": "externalURI",
      "outputs": [
        {
          "internalType": "string",
          "name": "",
          "type": "string"
        }
      ],
      "stateMutability": "view",
      "type": "function"
    },
    {
      "inputs": [
        {
          "internalType": "uint256",
          "name": "tokenId",
          "type": "uint256"
        }
      ],
      "name": "getApproved",
      "outputs": [
        {
          "internalType": "address",
          "name": "",
          "type": "address"
        }
      ],
      "stateMutability": "view",
      "type": "function"
    },
    {
      "inputs": [
        {
          "internalType": "uint256",
          "name": "_tokenId",
          "type": "uint256"
        }
      ],
      "name": "getConfiguredFeatures",
      "outputs": [
        {
          "internalType": "string",
          "name": "",
          "type": "string"
        }
      ],
      "stateMutability": "view",
      "type": "function"
    },
    {
      "inputs": [],
      "name": "getEnabledFeatures",
      "outputs": [
        {
          "components": [
            {
              "internalType": "bytes32",
              "name": "featureHash",
              "type": "bytes32"
            },
            {
              "internalType": "uint160",
              "name": "layer",
              "type": "uint160"
            },
            {
              "internalType": "uint24",
              "name": "x",
              "type": "uint24"
            },
            {
              "internalType": "uint24",
              "name": "y",
              "type": "uint24"
            },
            {
              "internalType": "uint24",
              "name": "w",
              "type": "uint24"
            },
            {
              "internalType": "uint24",
              "name": "h",
              "type": "uint24"
            }
          ],
          "internalType": "struct FeatureData[]",
          "name": "",
          "type": "tuple[]"
        }
      ],
      "stateMutability": "view",
      "type": "function"
    },
    {
      "inputs": [
        {
          "internalType": "address",
          "name": "owner",
          "type": "address"
        },
        {
          "internalType": "address",
          "name": "operator",
          "type": "address"
        }
      ],
      "name": "isApprovedForAll",
      "outputs": [
        {
          "internalType": "bool",
          "name": "",
          "type": "bool"
        }
      ],
      "stateMutability": "view",
      "type": "function"
    },
    {
      "inputs": [
        {
          "internalType": "address",
          "name": "_to",
          "type": "address"
        },
        {
          "internalType": "uint256",
          "name": "_quantity",
          "type": "uint256"
        }
      ],
      "name": "mint",
      "outputs": [],
      "stateMutability": "nonpayable",
      "type": "function"
    },
    {
      "inputs": [],
      "name": "name",
      "outputs": [
        {
          "internalType": "string",
          "name": "",
          "type": "string"
        }
      ],
      "stateMutability": "view",
      "type": "function"
    },
    {
      "inputs": [],
      "name": "nftDescription",
      "outputs": [
        {
          "internalType": "string",
          "name": "",
          "type": "string"
        }
      ],
      "stateMutability": "view",
      "type": "function"
    },
    {
      "inputs": [],
      "name": "nftName",
      "outputs": [
        {
          "internalType": "string",
          "name": "",
          "type": "string"
        }
      ],
      "stateMutability": "view",
      "type": "function"
    },
    {
      "inputs": [],
      "name": "nftSymbol",
      "outputs": [
        {
          "internalType": "string",
          "name": "",
          "type": "string"
        }
      ],
      "stateMutability": "view",
      "type": "function"
    },
    {
      "inputs": [],
      "name": "owner",
      "outputs": [
        {
          "internalType": "address",
          "name": "",
          "type": "address"
        }
      ],
      "stateMutability": "view",
      "type": "function"
    },
    {
      "inputs": [
        {
          "internalType": "uint256",
          "name": "tokenId",
          "type": "uint256"
        }
      ],
      "name": "ownerOf",
      "outputs": [
        {
          "internalType": "address",
          "name": "",
          "type": "address"
        }
      ],
      "stateMutability": "view",
      "type": "function"
    },
    {
      "inputs": [],
      "name": "renounceOwnership",
      "outputs": [],
      "stateMutability": "nonpayable",
      "type": "function"
    },
    {
      "inputs": [
        {
          "internalType": "address",
          "name": "from",
          "type": "address"
        },
        {
          "internalType": "address",
          "name": "to",
          "type": "address"
        },
        {
          "internalType": "uint256",
          "name": "tokenId",
          "type": "uint256"
        }
      ],
      "name": "safeTransferFrom",
      "outputs": [],
      "stateMutability": "nonpayable",
      "type": "function"
    },
    {
      "inputs": [
        {
          "internalType": "address",
          "name": "from",
          "type": "address"
        },
        {
          "internalType": "address",
          "name": "to",
          "type": "address"
        },
        {
          "internalType": "uint256",
          "name": "tokenId",
          "type": "uint256"
        },
        {
          "internalType": "bytes",
          "name": "_data",
          "type": "bytes"
        }
      ],
      "name": "safeTransferFrom",
      "outputs": [],
      "stateMutability": "nonpayable",
      "type": "function"
    },
    {
      "inputs": [
        {
          "internalType": "uint256",
          "name": "",
          "type": "uint256"
        },
        {
          "internalType": "bytes32",
          "name": "",
          "type": "bytes32"
        }
      ],
      "name": "selectedFeatures",
      "outputs": [
        {
          "internalType": "address",
          "name": "remoteContractAddr",
          "type": "address"
        },
        {
          "internalType": "uint256",
          "name": "remoteTokenId",
          "type": "uint256"
        }
      ],
      "stateMutability": "view",
      "type": "function"
    },
    {
      "inputs": [
        {
          "internalType": "address",
          "name": "operator",
          "type": "address"
        },
        {
          "internalType": "bool",
          "name": "approved",
          "type": "bool"
        }
      ],
      "name": "setApprovalForAll",
      "outputs": [],
      "stateMutability": "nonpayable",
      "type": "function"
    },
    {
      "inputs": [
        {
          "internalType": "string",
          "name": "_bURI",
          "type": "string"
        }
      ],
      "name": "setBaseURI",
      "outputs": [],
      "stateMutability": "nonpayable",
      "type": "function"
    },
    {
      "inputs": [
        {
          "internalType": "string",
          "name": "_eURI",
          "type": "string"
        }
      ],
      "name": "setExternalURI",
      "outputs": [],
      "stateMutability": "nonpayable",
      "type": "function"
    },
    {
      "inputs": [
        {
          "internalType": "bytes4",
          "name": "interfaceId",
          "type": "bytes4"
        }
      ],
      "name": "supportsInterface",
      "outputs": [
        {
          "internalType": "bool",
          "name": "",
          "type": "bool"
        }
      ],
      "stateMutability": "view",
      "type": "function"
    },
    {
      "inputs": [],
      "name": "symbol",
      "outputs": [
        {
          "internalType": "string",
          "name": "",
          "type": "string"
        }
      ],
      "stateMutability": "view",
      "type": "function"
    },
    {
      "inputs": [
        {
          "internalType": "uint256",
          "name": "index",
          "type": "uint256"
        }
      ],
      "name": "tokenByIndex",
      "outputs": [
        {
          "internalType": "uint256",
          "name": "",
          "type": "uint256"
        }
      ],
      "stateMutability": "view",
      "type": "function"
    },
    {
      "inputs": [
        {
          "internalType": "address",
          "name": "owner",
          "type": "address"
        },
        {
          "internalType": "uint256",
          "name": "index",
          "type": "uint256"
        }
      ],
      "name": "tokenOfOwnerByIndex",
      "outputs": [
        {
          "internalType": "uint256",
          "name": "",
          "type": "uint256"
        }
      ],
      "stateMutability": "view",
      "type": "function"
    },
    {
      "inputs": [
        {
          "internalType": "uint256",
          "name": "_tokenId",
          "type": "uint256"
        }
      ],
      "name": "tokenURI",
      "outputs": [
        {
          "internalType": "string",
          "name": "",
          "type": "string"
        }
      ],
      "stateMutability": "view",
      "type": "function"
    },
    {
      "inputs": [],
      "name": "totalSupply",
      "outputs": [
        {
          "internalType": "uint256",
          "name": "",
          "type": "uint256"
        }
      ],
      "stateMutability": "view",
      "type": "function"
    },
    {
      "inputs": [
        {
          "internalType": "address",
          "name": "from",
          "type": "address"
        },
        {
          "internalType": "address",
          "name": "to",
          "type": "address"
        },
        {
          "internalType": "uint256",
          "name": "tokenId",
          "type": "uint256"
        }
      ],
      "name": "transferFrom",
      "outputs": [],
      "stateMutability": "nonpayable",
      "type": "function"
    },
    {
      "inputs": [
        {
          "internalType": "address",
          "name": "newOwner",
          "type": "address"
        }
      ],
      "name": "transferOwnership",
      "outputs": [],
      "stateMutability": "nonpayable",
      "type": "function"
    },
    {
      "inputs": [],
      "name": "withdraw",
      "outputs": [],
      "stateMutability": "nonpayable",
      "type": "function"
    },
    {
      "inputs": [
        {
          "internalType": "contract IERC20",
          "name": "_token",
          "type": "address"
        }
      ],
      "name": "withdrawTokens",
      "outputs": [],
      "stateMutability": "nonpayable",
      "type": "function"
    }
  ],
  "bytecode": "0x60806040523480156200001157600080fd5b506040516200425638038062004256833981016040819052620000349162000540565b60405180604001604052806008815260200167686f73746e616d6560c01b815250604051806040016040528060088152602001673437b9ba39bcb6b160c11b81525081600090805190602001906200008e929190620003c0565b508051620000a4906001906020840190620003c0565b505050620000c1620000bb6200014160201b60201c565b62000145565b6001600b8190555081620000e9306001600160a01b03166200019760201b6200213c1760201c565b604051602001620000fc929190620005aa565b604051602081830303815290604052600c908051906020019062000122929190620003c0565b5080516200013890600d906020840190620003c0565b505050620006c4565b3390565b600a80546001600160a01b038381166001600160a01b0319831681179093556040519116919082907f8be0079c531659141344cd1fd0a4f28419497f9722a3daafe3b4186f6b6457e090600090a35050565b606081600003620001c25750506040805180820190915260048152630307830360e41b602082015290565b8160005b8115620001e95780620001d981620005ff565b915050600882901c9150620001c6565b620001f58482620001fd565b949350505050565b606060006200020e8360026200061b565b6200021b9060026200063d565b6001600160401b0381111562000235576200023562000466565b6040519080825280601f01601f19166020018201604052801562000260576020820181803683370190505b509050600360fc1b816000815181106200027e576200027e62000658565b60200101906001600160f81b031916908160001a905350600f60fb1b81600181518110620002b057620002b062000658565b60200101906001600160f81b031916908160001a9053506000620002d68460026200061b565b620002e39060016200063d565b90505b600181111562000365576f181899199a1a9b1b9c1cb0b131b232b360811b85600f16601081106200031b576200031b62000658565b1a60f81b82828151811062000334576200033462000658565b60200101906001600160f81b031916908160001a90535060049490941c936200035d816200066e565b9050620002e6565b508315620003b95760405162461bcd60e51b815260206004820181905260248201527f537472696e67733a20686578206c656e67746820696e73756666696369656e74604482015260640160405180910390fd5b9392505050565b828054620003ce9062000688565b90600052602060002090601f016020900481019282620003f257600085556200043d565b82601f106200040d57805160ff19168380011785556200043d565b828001600101855582156200043d579182015b828111156200043d57825182559160200191906001019062000420565b506200044b9291506200044f565b5090565b5b808211156200044b576000815560010162000450565b634e487b7160e01b600052604160045260246000fd5b60005b83811015620004995781810151838201526020016200047f565b83811115620004a9576000848401525b50505050565b600082601f830112620004c157600080fd5b81516001600160401b0380821115620004de57620004de62000466565b604051601f8301601f19908116603f0116810190828211818310171562000509576200050962000466565b816040528381528660208588010111156200052357600080fd5b620005368460208301602089016200047c565b9695505050505050565b600080604083850312156200055457600080fd5b82516001600160401b03808211156200056c57600080fd5b6200057a86838701620004af565b935060208501519150808211156200059157600080fd5b50620005a085828601620004af565b9150509250929050565b60008351620005be8184602088016200047c565b835190830190620005d48183602088016200047c565b602f60f81b9101908152600101949350505050565b634e487b7160e01b600052601160045260246000fd5b600060018201620006145762000614620005e9565b5060010190565b6000816000190483118215151615620006385762000638620005e9565b500290565b60008219821115620006535762000653620005e9565b500190565b634e487b7160e01b600052603260045260246000fd5b600081620006805762000680620005e9565b506000190190565b600181811c908216806200069d57607f821691505b602082108103620006be57634e487b7160e01b600052602260045260246000fd5b50919050565b613b8280620006d46000396000f3fe608060405234801561001057600080fd5b50600436106102265760003560e01c80636352211e11610130578063a22cb465116100b8578063dea4f92d1161007c578063dea4f92d1461053c578063debe12511461054f578063e985e9c514610562578063f2fde38b1461059e578063f71373f0146105b157600080fd5b8063a22cb4651461049b578063b82c0e26146104ae578063b88d4fde14610503578063c87b56dd14610516578063d08b4add1461052957600080fd5b8063715018a6116100ff578063715018a61461040a57806372dfe833146104125780637f8861c9146104255780638da5cb5b1461048257806395d89b411461049357600080fd5b80636352211e146103c75780636c0360eb146103da5780636d8f4b55146103e257806370a08231146103f757600080fd5b80633ccfd60b116101b35780634c82b957116101825780634c82b957146103735780634f6ccce71461038657806355f804b3146103995780635a2b4b74146103ac5780635ecf091f146103bf57600080fd5b80633ccfd60b1461033257806340c10f191461033a57806342842e0e1461034d57806349df728c1461036057600080fd5b8063095ea7b3116101fa578063095ea7b3146102be57806312c0f3d3146102d357806318160ddd146102fa57806323b872dd1461030c5780632f745c591461031f57600080fd5b80628bfb001461022b57806301ffc9a71461026857806306fdde031461028b578063081812fc14610293575b600080fd5b61025260405180604001604052806008815260200167686f73746e616d6560c01b81525081565b60405161025f9190612f38565b60405180910390f35b61027b610276366004612f61565b6105da565b604051901515815260200161025f565b610252610620565b6102a66102a1366004612f7e565b6106b2565b6040516001600160a01b03909116815260200161025f565b6102d16102cc366004612fac565b61074c565b005b610252604051806040016040528060088152602001673437b9ba39bcb6b160c11b81525081565b6008545b60405190815260200161025f565b6102d161031a366004612fd8565b610861565b6102fe61032d366004612fac565b610892565b6102d1610928565b6102d1610348366004612fac565b6109be565b6102d161035b366004612fd8565b610a17565b6102d161036e366004613019565b610a32565b6102d1610381366004613036565b610b64565b6102fe610394366004612f7e565b6110bd565b6102d16103a73660046130ab565b611150565b6102d16103ba366004613157565b6111c3565b6102526113f5565b6102a66103d5366004612f7e565b611483565b6102526114fa565b6103ea611507565b60405161025f9190613199565b6102fe610405366004613019565b6115bc565b6102d1611643565b610252610420366004612f7e565b611679565b610463610433366004613226565b600f602090815260009283526040808420909152908252902080546001909101546001600160a01b039091169082565b604080516001600160a01b03909316835260208301919091520161025f565b600a546001600160a01b03166102a6565b6102526119a1565b6102d16104a9366004613256565b6119b0565b6104c16104bc366004612f7e565b6119bb565b604080519687526001600160a01b03909516602087015262ffffff938416948601949094529082166060850152811660808401521660a082015260c00161025f565b6102d16105113660046132a5565b611a1e565b610252610524366004612f7e565b611a50565b6102d16105373660046130ab565b611abd565b6102d161054a366004613385565b611b24565b6102d161055d3660046133d1565b611c9c565b61027b610570366004613450565b6001600160a01b03918216600090815260056020908152604080832093909416825291909152205460ff1690565b6102d16105ac366004613019565b6120a4565b6102526040518060400160405280600a8152602001691bd8db999d081a1bdcdd60b21b81525081565b60006309e3ba3960e01b6001600160e01b03198316148061060b57506307f5828d60e41b6001600160e01b03198316145b8061061a575061061a8261219b565b92915050565b60606000805461062f9061347e565b80601f016020809104026020016040519081016040528092919081815260200182805461065b9061347e565b80156106a85780601f1061067d576101008083540402835291602001916106a8565b820191906000526020600020905b81548152906001019060200180831161068b57829003601f168201915b5050505050905090565b6000818152600260205260408120546001600160a01b03166107305760405162461bcd60e51b815260206004820152602c60248201527f4552433732313a20617070726f76656420717565727920666f72206e6f6e657860448201526b34b9ba32b73a103a37b5b2b760a11b60648201526084015b60405180910390fd5b506000908152600460205260409020546001600160a01b031690565b600061075782611483565b9050806001600160a01b0316836001600160a01b0316036107c45760405162461bcd60e51b815260206004820152602160248201527f4552433732313a20617070726f76616c20746f2063757272656e74206f776e656044820152603960f91b6064820152608401610727565b336001600160a01b03821614806107e057506107e08133610570565b6108525760405162461bcd60e51b815260206004820152603860248201527f4552433732313a20617070726f76652063616c6c6572206973206e6f74206f7760448201527f6e6572206e6f7220617070726f76656420666f7220616c6c00000000000000006064820152608401610727565b61085c83836121c0565b505050565b61086b338261222e565b6108875760405162461bcd60e51b8152600401610727906134b8565b61085c838383612324565b600061089d836115bc565b82106108ff5760405162461bcd60e51b815260206004820152602b60248201527f455243373231456e756d657261626c653a206f776e657220696e646578206f7560448201526a74206f6620626f756e647360a81b6064820152608401610727565b506001600160a01b03919091166000908152600660209081526040808320938352929052205490565b600a546001600160a01b031633146109525760405162461bcd60e51b815260040161072790613509565b604051600090339047908381818185875af1925050503d8060008114610994576040519150601f19603f3d011682016040523d82523d6000602084013e610999565b606091505b50509050806109bb576040516367b2cd0560e01b815260040160405180910390fd5b50565b600a546001600160a01b031633146109e85760405162461bcd60e51b815260040161072790613509565b60005b8181101561085c57610a0583610a0060085490565b61233d565b80610a0f81613554565b9150506109eb565b61085c83838360405180602001604052806000815250611a1e565b600a546001600160a01b03163314610a5c5760405162461bcd60e51b815260040161072790613509565b6040516370a0823160e01b81523060048201526000906001600160a01b0383169063a9059cbb90339083906370a0823190602401602060405180830381865afa158015610aad573d6000803e3d6000fd5b505050506040513d601f19601f82011682018060405250810190610ad1919061356d565b6040516001600160e01b031960e085901b1681526001600160a01b03909216600483015260248201526044016020604051808303816000875af1158015610b1c573d6000803e3d6000fd5b505050506040513d601f19601f82011682018060405250810190610b409190613586565b905080610b60576040516367b2cd0560e01b815260040160405180910390fd5b5050565b600a546001600160a01b03163314610b8e5760405162461bcd60e51b815260040161072790613509565b6000805b828110156110b75760005b600e54811015610e6a57848483818110610bb957610bb96135a3565b905060c0020160000135600e8281548110610bd657610bd66135a3565b90600052602060002090600202016000015403610e5857848483818110610bff57610bff6135a3565b905060c002016020016020810190610c179190613019565b600e8281548110610c2a57610c2a6135a3565b906000526020600020906002020160010160006101000a8154816001600160a01b0302191690836001600160a01b03160217905550848483818110610c7157610c716135a3565b905060c002016040016020810190610c8991906135b9565b600e8281548110610c9c57610c9c6135a3565b906000526020600020906002020160010160146101000a81548162ffffff021916908362ffffff160217905550848483818110610cdb57610cdb6135a3565b905060c002016060016020810190610cf391906135b9565b600e8281548110610d0657610d066135a3565b906000526020600020906002020160010160176101000a81548162ffffff021916908362ffffff160217905550848483818110610d4557610d456135a3565b905060c002016080016020810190610d5d91906135b9565b600e8281548110610d7057610d706135a3565b9060005260206000209060020201600101601a6101000a81548162ffffff021916908362ffffff160217905550848483818110610daf57610daf6135a3565b905060c0020160a0016020810190610dc791906135b9565b600e8281548110610dda57610dda6135a3565b9060005260206000209060020201600101601d6101000a81548162ffffff021916908362ffffff16021790555060019250848483818110610e1d57610e1d6135a3565b905060c00201600001357f7bf288ebab1c13759a3223c56ea64f06750d870ba672b05dfed1e36dc651c08760405160405180910390a2610e6a565b80610e6281613554565b915050610b9d565b508115156000036110a557600e6040518060c00160405280868685818110610e9457610e946135a3565b905060c00201600001358152602001868685818110610eb557610eb56135a3565b905060c002016020016020810190610ecd9190613019565b6001600160a01b03168152602001868685818110610eed57610eed6135a3565b905060c002016040016020810190610f0591906135b9565b62ffffff168152602001868685818110610f2157610f216135a3565b905060c002016060016020810190610f3991906135b9565b62ffffff168152602001868685818110610f5557610f556135a3565b905060c002016080016020810190610f6d91906135b9565b62ffffff168152602001868685818110610f8957610f896135a3565b905060c0020160a0016020810190610fa191906135b9565b62ffffff90811690915282546001818101855560009485526020948590208451600290930201918255938301519301805460408401516060850151608086015160a0909601518516600160e81b026001600160e81b03968616600160d01b0262ffffff60d01b19928716600160b81b029290921665ffffffffffff60b81b1993909616600160a01b026001600160b81b03199094166001600160a01b0390981697909717929092171692909217919091179190911691909117905583838281811061106e5761106e6135a3565b905060c00201600001357f7bf288ebab1c13759a3223c56ea64f06750d870ba672b05dfed1e36dc651c08760405160405180910390a25b806110af81613554565b915050610b92565b50505050565b60006110c860085490565b821061112b5760405162461bcd60e51b815260206004820152602c60248201527f455243373231456e756d657261626c653a20676c6f62616c20696e646578206f60448201526b7574206f6620626f756e647360a01b6064820152608401610727565b6008828154811061113e5761113e6135a3565b90600052602060002001549050919050565b600a546001600160a01b0316331461117a5760405162461bcd60e51b815260040161072790613509565b611186600c8383612e47565b507ff9c7803e94e0d3c02900d8a90893a6d5e90dd04d32a4cfe825520f82bf9f32f6600c6040516111b791906135de565b60405180910390a15050565b600a546001600160a01b031633146111ed5760405162461bcd60e51b815260040161072790613509565b60005b8181101561085c5760005b600e548110156113e257838383818110611217576112176135a3565b90506020020135600e8281548110611231576112316135a3565b906000526020600020906002020160000154036113d057600e805461125890600190613661565b81548110611268576112686135a3565b9060005260206000209060020201600e8281548110611289576112896135a3565b600091825260209091208254600290920201908155600191820180549290910180546001600160a01b031981166001600160a01b039094169384178255825462ffffff600160a01b9182900481169091026001600160b81b0319909216909417178082558254600160b81b9081900485160262ffffff60b81b198216811783558354600160d01b9081900486160262ffffff60d01b1990911665ffffffffffff60b81b1990921691909117178082559154600160e81b908190049093169092026001600160e81b03909116179055600e80548061136857611368613678565b600082815260208120600260001990930192830201818155600101559055838383818110611398576113986135a3565b905060200201357f3e934160a539fd8be6249e912b68b666d4fe4e1cc7d8051d57f50ba465fe318360405160405180910390a26113e2565b806113da81613554565b9150506111fb565b50806113ed81613554565b9150506111f0565b600d80546114029061347e565b80601f016020809104026020016040519081016040528092919081815260200182805461142e9061347e565b801561147b5780601f106114505761010080835404028352916020019161147b565b820191906000526020600020905b81548152906001019060200180831161145e57829003601f168201915b505050505081565b6000818152600260205260408120546001600160a01b03168061061a5760405162461bcd60e51b815260206004820152602960248201527f4552433732313a206f776e657220717565727920666f72206e6f6e657869737460448201526832b73a103a37b5b2b760b91b6064820152608401610727565b600c80546114029061347e565b6060600e805480602002602001604051908101604052809291908181526020016000905b828210156115b35760008481526020908190206040805160c08101825260028602909201805483526001908101546001600160a01b0381168486015262ffffff600160a01b8204811693850193909352600160b81b810483166060850152600160d01b810483166080850152600160e81b900490911660a0830152908352909201910161152b565b50505050905090565b60006001600160a01b0382166116275760405162461bcd60e51b815260206004820152602a60248201527f4552433732313a2062616c616e636520717565727920666f7220746865207a65604482015269726f206164647265737360b01b6064820152608401610727565b506001600160a01b031660009081526003602052604090205490565b600a546001600160a01b0316331461166d5760405162461bcd60e51b815260040161072790613509565b611677600061248b565b565b6000818152600260205260409020546060906001600160a01b0316151515156000036116b857604051634c067a5960e01b815260040160405180910390fd5b6040805180820190915260018152607b60f81b6020820152600e5460005b818110156119775782611717600e83815481106116f5576116f56135a3565b60009182526020909120600160029092020101546001600160a01b03166124dd565b611743600e848154811061172d5761172d6135a3565b600091825260209091206002909102015461213c565b6000888152600f60205260408120600e805461179a9391908890811061176b5761176b6135a3565b6000918252602080832060029092029091015483528201929092526040019020546001600160a01b031661213c565b6000898152600f60205260408120600e80546117eb939190899081106117c2576117c26135a3565b9060005260206000209060020201600001548152602001908152602001600020600101546124dd565b6040516020016117ff95949392919061368e565b60405160208183030381529060405292508261184c600e8381548110611827576118276135a3565b6000918252602090912060029091020160010154600160a01b900462ffffff166124dd565b611887600e8481548110611862576118626135a3565b6000918252602090912060029091020160010154600160b81b900462ffffff166124dd565b6118c2600e858154811061189d5761189d6135a3565b6000918252602090912060029091020160010154600160d01b900462ffffff166124dd565b6118fd600e86815481106118d8576118d86135a3565b6000918252602090912060029091020160010154600160e81b900462ffffff166124dd565b611908600188613661565b861461192d57604051806040016040528060018152602001600b60fa1b81525061193e565b604051806020016040528060008152505b60405160200161195396959493929190613739565b6040516020818303038152906040529250808061196f90613554565b9150506116d6565b508160405160200161198991906137f2565b60408051601f19818403018152919052949350505050565b60606001805461062f9061347e565b610b603383836125de565b600e81815481106119cb57600080fd5b6000918252602090912060029091020180546001909101549091506001600160a01b0381169062ffffff600160a01b8204811691600160b81b8104821691600160d01b8204811691600160e81b90041686565b611a28338361222e565b611a445760405162461bcd60e51b8152600401610727906134b8565b6110b7848484846126ac565b6000818152600260205260409020546060906001600160a01b031615151515600003611a8f57604051634c067a5960e01b815260040160405180910390fd5b6000611a996126df565b5111611ab4576040518060200160405280600081525061061a565b61061a826126ee565b600a546001600160a01b03163314611ae75760405162461bcd60e51b815260040161072790613509565b611af3600d8383612e47565b507f661def630555bcee913667c40812d896fe127981e7273b78357894b4ba17c2e5600d6040516111b791906135de565b6000838152600260205260408120546001600160a01b031615159003611b5d57604051634c067a5960e01b815260040160405180910390fd5b611b6683611483565b6001600160a01b0316336001600160a01b031614611b9757604051637ad7e56760e11b815260040160405180910390fd5b60005b818110156110b7576000848152600f6020526040812081858585818110611bc357611bc36135a3565b90506020020135815260200190815260200160002060000160006101000a8154816001600160a01b0302191690836001600160a01b031602179055506000600f60008681526020019081526020016000206000858585818110611c2857611c286135a3565b90506020020135815260200190815260200160002060010181905550828282818110611c5657611c566135a3565b90506020020135847f03c950897cc44b1c51fb8355b538e2888f2f2b59cb36d4d9e822febf49da3deb60405160405180910390a380611c9481613554565b915050611b9a565b6002600b5403611cee5760405162461bcd60e51b815260206004820152601f60248201527f5265656e7472616e637947756172643a207265656e7472616e742063616c6c006044820152606401610727565b6002600b55611d14836000908152600260205260409020546001600160a01b0316151590565b1515600003611d3657604051634c067a5960e01b815260040160405180910390fd5b611d3f83611483565b6001600160a01b0316336001600160a01b031614611d7057604051637ad7e56760e11b815260040160405180910390fd5b8060005b81811015611ebc576000848483818110611d9057611d906135a3565b9050606002016020016020810190611da89190613019565b6001600160a01b031603611dcf5760405163cbdd34cf60e01b815260040160405180910390fd5b33848483818110611de257611de26135a3565b9050606002016020016020810190611dfa9190613019565b6001600160a01b0316636352211e868685818110611e1a57611e1a6135a3565b905060600201604001356040518263ffffffff1660e01b8152600401611e4291815260200190565b602060405180830381865afa158015611e5f573d6000803e3d6000fd5b505050506040513d601f19601f82011682018060405250810190611e839190613817565b6001600160a01b031614611eaa57604051632e73dbcd60e01b815260040160405180910390fd5b80611eb481613554565b915050611d74565b5060005b8181101561209857600e54600090815b81811015611f3957868685818110611eea57611eea6135a3565b90506060020160000135600e8281548110611f0757611f076135a3565b90600052602060002090600202016000015403611f275760019250611f39565b80611f3181613554565b915050611ed0565b5081611f5857604051630292ca1560e11b815260040160405180910390fd5b858584818110611f6a57611f6a6135a3565b9050606002016020016020810190611f829190613019565b6000888152600f6020526040812090888887818110611fa357611fa36135a3565b6060029190910135825250602081019190915260400160002080546001600160a01b0319166001600160a01b0392909216919091179055858584818110611fec57611fec6135a3565b90506060020160400135600f6000898152602001908152602001600020600088888781811061201d5761201d6135a3565b606002919091013582525060208101919091526040016000206001015585858481811061204c5761204c6135a3565b90506060020160000135877f03c950897cc44b1c51fb8355b538e2888f2f2b59cb36d4d9e822febf49da3deb60405160405180910390a35050808061209090613554565b915050611ec0565b50506001600b55505050565b600a546001600160a01b031633146120ce5760405162461bcd60e51b815260040161072790613509565b6001600160a01b0381166121335760405162461bcd60e51b815260206004820152602660248201527f4f776e61626c653a206e6577206f776e657220697320746865207a65726f206160448201526564647265737360d01b6064820152608401610727565b6109bb8161248b565b6060816000036121665750506040805180820190915260048152630307830360e41b602082015290565b8160005b8115612189578061217a81613554565b915050600882901c915061216a565b61219384826127a6565b949350505050565b60006001600160e01b0319821663780e9d6360e01b148061061a575061061a82612949565b600081815260046020526040902080546001600160a01b0319166001600160a01b03841690811790915581906121f582611483565b6001600160a01b03167f8c5be1e5ebec7d5bd14f71427d1e84f3dd0314c0f7b2291e5b200ac8c7c3b92560405160405180910390a45050565b6000818152600260205260408120546001600160a01b03166122a75760405162461bcd60e51b815260206004820152602c60248201527f4552433732313a206f70657261746f7220717565727920666f72206e6f6e657860448201526b34b9ba32b73a103a37b5b2b760a11b6064820152608401610727565b60006122b283611483565b9050806001600160a01b0316846001600160a01b031614806122f957506001600160a01b0380821660009081526005602090815260408083209388168352929052205460ff165b806121935750836001600160a01b0316612312846106b2565b6001600160a01b031614949350505050565b604051630f7eca6d60e41b815260040160405180910390fd5b6001600160a01b0382166123935760405162461bcd60e51b815260206004820181905260248201527f4552433732313a206d696e7420746f20746865207a65726f20616464726573736044820152606401610727565b6000818152600260205260409020546001600160a01b0316156123f85760405162461bcd60e51b815260206004820152601c60248201527f4552433732313a20746f6b656e20616c7265616479206d696e746564000000006044820152606401610727565b61240460008383612999565b6001600160a01b038216600090815260036020526040812080546001929061242d908490613834565b909155505060008181526002602052604080822080546001600160a01b0319166001600160a01b03861690811790915590518392907fddf252ad1be2c89b69c2b068fc378daa952ba7f163c4a11628f55a4df523b3ef908290a45050565b600a80546001600160a01b038381166001600160a01b0319831681179093556040519116919082907f8be0079c531659141344cd1fd0a4f28419497f9722a3daafe3b4186f6b6457e090600090a35050565b6060816000036125045750506040805180820190915260018152600360fc1b602082015290565b8160005b811561252e578061251881613554565b91506125279050600a83613862565b9150612508565b60008167ffffffffffffffff8111156125495761254961328f565b6040519080825280601f01601f191660200182016040528015612573576020820181803683370190505b5090505b841561219357612588600183613661565b9150612595600a86613876565b6125a0906030613834565b60f81b8183815181106125b5576125b56135a3565b60200101906001600160f81b031916908160001a9053506125d7600a86613862565b9450612577565b816001600160a01b0316836001600160a01b03160361263f5760405162461bcd60e51b815260206004820152601960248201527f4552433732313a20617070726f766520746f2063616c6c6572000000000000006044820152606401610727565b6001600160a01b03838116600081815260056020908152604080832094871680845294825291829020805460ff191686151590811790915591519182527f17307eab39ab6107e8899845ad3d59bd9653f200f220920489ca2b5937696c31910160405180910390a3505050565b6126b7848484612324565b6126c384848484612a51565b6110b75760405162461bcd60e51b81526004016107279061388a565b6060600c805461062f9061347e565b606060006126fb836124dd565b9050600060405180604001604052806008815260200167686f73746e616d6560c01b8152506040518060400160405280600a8152602001691bd8db999d081a1bdcdd60b21b815250600c84600d8660405160200161275e9695949392919061394b565b6040516020818303038152906040529050600061277a82612b52565b90508060405160200161278d9190613a38565b6040516020818303038152906040529350505050919050565b606060006127b5836002613a7d565b6127c0906002613834565b67ffffffffffffffff8111156127d8576127d861328f565b6040519080825280601f01601f191660200182016040528015612802576020820181803683370190505b509050600360fc1b8160008151811061281d5761281d6135a3565b60200101906001600160f81b031916908160001a905350600f60fb1b8160018151811061284c5761284c6135a3565b60200101906001600160f81b031916908160001a9053506000612870846002613a7d565b61287b906001613834565b90505b60018111156128f3576f181899199a1a9b1b9c1cb0b131b232b360811b85600f16601081106128af576128af6135a3565b1a60f81b8282815181106128c5576128c56135a3565b60200101906001600160f81b031916908160001a90535060049490941c936128ec81613a9c565b905061287e565b5083156129425760405162461bcd60e51b815260206004820181905260248201527f537472696e67733a20686578206c656e67746820696e73756666696369656e746044820152606401610727565b9392505050565b60006001600160e01b031982166380ac58cd60e01b148061297a57506001600160e01b03198216635b5e139f60e01b145b8061061a57506301ffc9a760e01b6001600160e01b031983161461061a565b6001600160a01b0383166129f4576129ef81600880546000838152600960205260408120829055600182018355919091527ff3f7a9fe364faab93b216da50a3214154f22a0a2b415b23a84c8169e8b636ee30155565b612a17565b816001600160a01b0316836001600160a01b031614612a1757612a178382612cb7565b6001600160a01b038216612a2e5761085c81612d54565b826001600160a01b0316826001600160a01b03161461085c5761085c8282612e03565b60006001600160a01b0384163b15612b4757604051630a85bd0160e11b81526001600160a01b0385169063150b7a0290612a95903390899088908890600401613ab3565b6020604051808303816000875af1925050508015612ad0575060408051601f3d908101601f19168201909252612acd91810190613aef565b60015b612b2d573d808015612afe576040519150601f19603f3d011682016040523d82523d6000602084013e612b03565b606091505b508051600003612b255760405162461bcd60e51b81526004016107279061388a565b805181602001fd5b6001600160e01b031916630a85bd0160e11b149050612193565b506001949350505050565b60608151600003612b7157505060408051602081019091526000815290565b6000604051806060016040528060408152602001613b0d6040913990506000600384516002612ba09190613834565b612baa9190613862565b612bb5906004613a7d565b90506000612bc4826020613834565b67ffffffffffffffff811115612bdc57612bdc61328f565b6040519080825280601f01601f191660200182016040528015612c06576020820181803683370190505b509050818152600183018586518101602084015b81831015612c72576003830192508251603f8160121c168501518253600182019150603f81600c1c168501518253600182019150603f8160061c168501518253600182019150603f8116850151825350600101612c1a565b600389510660018114612c8c5760028114612c9d57612ca9565b613d3d60f01b600119830152612ca9565b603d60f81b6000198301525b509398975050505050505050565b60006001612cc4846115bc565b612cce9190613661565b600083815260076020526040902054909150808214612d21576001600160a01b03841660009081526006602090815260408083208584528252808320548484528184208190558352600790915290208190555b5060009182526007602090815260408084208490556001600160a01b039094168352600681528383209183525290812055565b600854600090612d6690600190613661565b60008381526009602052604081205460088054939450909284908110612d8e57612d8e6135a3565b906000526020600020015490508060088381548110612daf57612daf6135a3565b6000918252602080832090910192909255828152600990915260408082208490558582528120556008805480612de757612de7613678565b6001900381819060005260206000200160009055905550505050565b6000612e0e836115bc565b6001600160a01b039093166000908152600660209081526040808320868452825280832085905593825260079052919091209190915550565b828054612e539061347e565b90600052602060002090601f016020900481019282612e755760008555612ebb565b82601f10612e8e5782800160ff19823516178555612ebb565b82800160010185558215612ebb579182015b82811115612ebb578235825591602001919060010190612ea0565b50612ec7929150612ecb565b5090565b5b80821115612ec75760008155600101612ecc565b60005b83811015612efb578181015183820152602001612ee3565b838111156110b75750506000910152565b60008151808452612f24816020860160208601612ee0565b601f01601f19169290920160200192915050565b6020815260006129426020830184612f0c565b6001600160e01b0319811681146109bb57600080fd5b600060208284031215612f7357600080fd5b813561294281612f4b565b600060208284031215612f9057600080fd5b5035919050565b6001600160a01b03811681146109bb57600080fd5b60008060408385031215612fbf57600080fd5b8235612fca81612f97565b946020939093013593505050565b600080600060608486031215612fed57600080fd5b8335612ff881612f97565b9250602084013561300881612f97565b929592945050506040919091013590565b60006020828403121561302b57600080fd5b813561294281612f97565b6000806020838503121561304957600080fd5b823567ffffffffffffffff8082111561306157600080fd5b818501915085601f83011261307557600080fd5b81358181111561308457600080fd5b86602060c08302850101111561309957600080fd5b60209290920196919550909350505050565b600080602083850312156130be57600080fd5b823567ffffffffffffffff808211156130d657600080fd5b818501915085601f8301126130ea57600080fd5b8135818111156130f957600080fd5b86602082850101111561309957600080fd5b60008083601f84011261311d57600080fd5b50813567ffffffffffffffff81111561313557600080fd5b6020830191508360208260051b850101111561315057600080fd5b9250929050565b6000806020838503121561316a57600080fd5b823567ffffffffffffffff81111561318157600080fd5b61318d8582860161310b565b90969095509350505050565b602080825282518282018190526000919060409081850190868401855b8281101561321957815180518552868101516001600160a01b0316878601528581015162ffffff9081168787015260608083015182169087015260808083015182169087015260a091820151169085015260c090930192908501906001016131b6565b5091979650505050505050565b6000806040838503121561323957600080fd5b50508035926020909101359150565b80151581146109bb57600080fd5b6000806040838503121561326957600080fd5b823561327481612f97565b9150602083013561328481613248565b809150509250929050565b634e487b7160e01b600052604160045260246000fd5b600080600080608085870312156132bb57600080fd5b84356132c681612f97565b935060208501356132d681612f97565b925060408501359150606085013567ffffffffffffffff808211156132fa57600080fd5b818701915087601f83011261330e57600080fd5b8135818111156133205761332061328f565b604051601f8201601f19908116603f011681019083821181831017156133485761334861328f565b816040528281528a602084870101111561336157600080fd5b82602086016020830137600060208483010152809550505050505092959194509250565b60008060006040848603121561339a57600080fd5b83359250602084013567ffffffffffffffff8111156133b857600080fd5b6133c48682870161310b565b9497909650939450505050565b6000806000604084860312156133e657600080fd5b83359250602084013567ffffffffffffffff8082111561340557600080fd5b818601915086601f83011261341957600080fd5b81358181111561342857600080fd5b87602060608302850101111561343d57600080fd5b6020830194508093505050509250925092565b6000806040838503121561346357600080fd5b823561346e81612f97565b9150602083013561328481612f97565b600181811c9082168061349257607f821691505b6020821081036134b257634e487b7160e01b600052602260045260246000fd5b50919050565b60208082526031908201527f4552433732313a207472616e736665722063616c6c6572206973206e6f74206f6040820152701ddb995c881b9bdc88185c1c1c9bdd9959607a1b606082015260800190565b6020808252818101527f4f776e61626c653a2063616c6c6572206973206e6f7420746865206f776e6572604082015260600190565b634e487b7160e01b600052601160045260246000fd5b6000600182016135665761356661353e565b5060010190565b60006020828403121561357f57600080fd5b5051919050565b60006020828403121561359857600080fd5b815161294281613248565b634e487b7160e01b600052603260045260246000fd5b6000602082840312156135cb57600080fd5b813562ffffff8116811461294257600080fd5b60006020808352600084546135f28161347e565b80848701526040600180841660008114613613576001811461362757612ca9565b60ff19851689840152606089019550612ca9565b896000528660002060005b8581101561364d5781548b8201860152908301908801613632565b909901929092019998505050505050505050565b6000828210156136735761367361353e565b500390565b634e487b7160e01b600052603160045260246000fd5b600086516136a0818460208b01612ee0565b601160f91b90830190815286516136be816001840160208b01612ee0565b63111d2d9160e11b6001929091019182015285516136e3816005840160208a01612ee0565b6211161160e91b600592909101918201528451613707816008840160208901612ee0565b61088b60f21b60089290910191820152835161372a81600a840160208801612ee0565b01600a01979650505050505050565b60008751602061374c8285838d01612ee0565b8184019150600b60fa1b808352895161376b8160018601858e01612ee0565b6001930192830181905288516137878160028601858d01612ee0565b6002930192830181905287516137a38160038601858c01612ee0565b600393019283015285516137bd8160048501848a01612ee0565b605d60f81b6004939091019283015284516137de8160058501848901612ee0565b919091016005019998505050505050505050565b60008251613804818460208701612ee0565b607d60f81b920191825250600101919050565b60006020828403121561382957600080fd5b815161294281612f97565b600082198211156138475761384761353e565b500190565b634e487b7160e01b600052601260045260246000fd5b6000826138715761387161384c565b500490565b6000826138855761388561384c565b500690565b60208082526032908201527f4552433732313a207472616e7366657220746f206e6f6e20455243373231526560408201527131b2b4bb32b91034b6b83632b6b2b73a32b960711b606082015260800190565b600081546138e98161347e565b60018281168015613901576001811461391257613941565b60ff19841687528287019450613941565b8560005260208060002060005b858110156139385781548a82015290840190820161391f565b50505082870194505b5050505092915050565b683d913730b6b2911d1160b91b81528651600090613970816009850160208c01612ee0565b701116113232b9b1b934b83a34b7b7111d1160791b60099184019182015287516139a181601a840160208c01612ee0565b6a11161134b6b0b3b2911d1160a91b601a92909101918201526139c760258201886138dc565b905085516139d9818360208a01612ee0565b7f2e706e67222c2265787465726e616c5f75726c223a22000000000000000000009101908152613a0c60168201866138dc565b90508351613a1e818360208801612ee0565b61227d60f01b910190815260020198975050505050505050565b7f646174613a6170706c69636174696f6e2f6a736f6e3b6261736536342c000000815260008251613a7081601d850160208701612ee0565b91909101601d0192915050565b6000816000190483118215151615613a9757613a9761353e565b500290565b600081613aab57613aab61353e565b506000190190565b60006001600160a01b03808716835280861660208401525083604083015260806060830152613ae56080830184612f0c565b9695505050505050565b600060208284031215613b0157600080fd5b815161294281612f4b56fe4142434445464748494a4b4c4d4e4f505152535455565758595a6162636465666768696a6b6c6d6e6f707172737475767778797a303132333435363738392b2fa26469706673582212204f5b14eb613ecb8a348722f2c0c185f37db527dfadf18e4c7591797d5d92cf7564736f6c634300080d0033",
  "linkReferences": {},
  "deployedLinkReferences": {}
}