{
  "_format": "hh-sol-artifact-1",
  "contractName": "host",
  "sourceName": "contracts/host.sol",
  "abi": [
    {
      "inputs": [
        {
          "internalType": "string",
          "name": "_bURI",
          "type": "string"
        },
        {
          "internalType": "string",
          "name": "_eURI",
          "type": "string"
        }
      ],
      "stateMutability": "nonpayable",
      "type": "constructor"
    },
    {
      "inputs": [],
      "name": "IsNotRemoteTokenOwner",
      "type": "error"
    },
    {
      "inputs": [],
      "name": "invalidAddress",
      "type": "error"
    },
    {
      "inputs": [],
      "name": "invalidFeature",
      "type": "error"
    },
    {
      "inputs": [],
      "name": "invalidTokenId",
      "type": "error"
    },
    {
      "inputs": [],
      "name": "isNotTokenOwner",
      "type": "error"
    },
    {
      "inputs": [],
      "name": "isSoulbound",
      "type": "error"
    },
    {
      "inputs": [],
      "name": "withdrawFailed",
      "type": "error"
    },
    {
      "anonymous": false,
      "inputs": [
        {
          "indexed": true,
          "internalType": "address",
          "name": "owner",
          "type": "address"
        },
        {
          "indexed": true,
          "internalType": "address",
          "name": "approved",
          "type": "address"
        },
        {
          "indexed": true,
          "internalType": "uint256",
          "name": "tokenId",
          "type": "uint256"
        }
      ],
      "name": "Approval",
      "type": "event"
    },
    {
      "anonymous": false,
      "inputs": [
        {
          "indexed": true,
          "internalType": "address",
          "name": "owner",
          "type": "address"
        },
        {
          "indexed": true,
          "internalType": "address",
          "name": "operator",
          "type": "address"
        },
        {
          "indexed": false,
          "internalType": "bool",
          "name": "approved",
          "type": "bool"
        }
      ],
      "name": "ApprovalForAll",
      "type": "event"
    },
    {
      "anonymous": false,
      "inputs": [
        {
          "indexed": false,
          "internalType": "string",
          "name": "baseURI",
          "type": "string"
        }
      ],
      "name": "BaseURISet",
      "type": "event"
    },
    {
      "anonymous": false,
      "inputs": [
        {
          "indexed": false,
          "internalType": "string",
          "name": "externalURI",
          "type": "string"
        }
      ],
      "name": "ExternalURISet",
      "type": "event"
    },
    {
      "anonymous": false,
      "inputs": [
        {
          "indexed": true,
          "internalType": "uint256",
          "name": "tokenId",
          "type": "uint256"
        },
        {
          "indexed": true,
          "internalType": "bytes32",
          "name": "featureHash",
          "type": "bytes32"
        }
      ],
      "name": "FeatureCleared",
      "type": "event"
    },
    {
      "anonymous": false,
      "inputs": [
        {
          "indexed": true,
          "internalType": "uint256",
          "name": "tokenId",
          "type": "uint256"
        },
        {
          "indexed": true,
          "internalType": "bytes32",
          "name": "featureHash",
          "type": "bytes32"
        }
      ],
      "name": "FeatureConfigured",
      "type": "event"
    },
    {
      "anonymous": false,
      "inputs": [
        {
          "indexed": true,
          "internalType": "bytes32",
          "name": "featureHash",
          "type": "bytes32"
        }
      ],
      "name": "FeatureDisabled",
      "type": "event"
    },
    {
      "anonymous": false,
      "inputs": [
        {
          "indexed": true,
          "internalType": "bytes32",
          "name": "featureHash",
          "type": "bytes32"
        }
      ],
      "name": "FeatureEnabled",
      "type": "event"
    },
    {
      "anonymous": false,
      "inputs": [
        {
          "indexed": true,
          "internalType": "bytes32",
          "name": "featureHash",
          "type": "bytes32"
        }
      ],
      "name": "FeatureUpdated",
      "type": "event"
    },
    {
      "anonymous": false,
      "inputs": [
        {
          "indexed": true,
          "internalType": "address",
          "name": "previousOwner",
          "type": "address"
        },
        {
          "indexed": true,
          "internalType": "address",
          "name": "newOwner",
          "type": "address"
        }
      ],
      "name": "OwnershipTransferred",
      "type": "event"
    },
    {
      "anonymous": false,
      "inputs": [
        {
          "indexed": true,
          "internalType": "address",
          "name": "from",
          "type": "address"
        },
        {
          "indexed": true,
          "internalType": "address",
          "name": "to",
          "type": "address"
        },
        {
          "indexed": true,
          "internalType": "uint256",
          "name": "tokenId",
          "type": "uint256"
        }
      ],
      "name": "Transfer",
      "type": "event"
    },
    {
      "inputs": [
        {
          "internalType": "address",
          "name": "to",
          "type": "address"
        },
        {
          "internalType": "uint256",
          "name": "tokenId",
          "type": "uint256"
        }
      ],
      "name": "approve",
      "outputs": [],
      "stateMutability": "nonpayable",
      "type": "function"
    },
    {
      "inputs": [
        {
          "internalType": "address",
          "name": "owner",
          "type": "address"
        }
      ],
      "name": "balanceOf",
      "outputs": [
        {
          "internalType": "uint256",
          "name": "",
          "type": "uint256"
        }
      ],
      "stateMutability": "view",
      "type": "function"
    },
    {
      "inputs": [],
      "name": "baseURI",
      "outputs": [
        {
          "internalType": "string",
          "name": "",
          "type": "string"
        }
      ],
      "stateMutability": "view",
      "type": "function"
    },
    {
      "inputs": [
        {
          "internalType": "uint256",
          "name": "_tokenId",
          "type": "uint256"
        },
        {
          "internalType": "bytes32[]",
          "name": "_featureHashes",
          "type": "bytes32[]"
        }
      ],
      "name": "clearFeatures",
      "outputs": [],
      "stateMutability": "nonpayable",
      "type": "function"
    },
    {
      "inputs": [
        {
          "internalType": "uint256",
          "name": "_tokenId",
          "type": "uint256"
        },
        {
          "components": [
            {
              "internalType": "bytes32",
              "name": "_featureHash",
              "type": "bytes32"
            },
            {
              "internalType": "contract remote",
              "name": "_remoteContractAddr",
              "type": "address"
            },
            {
              "internalType": "uint256",
              "name": "_remoteTokenId",
              "type": "uint256"
            }
          ],
          "internalType": "struct SetFeatureInput[]",
          "name": "inputData",
          "type": "tuple[]"
        }
      ],
      "name": "configureFeatures",
      "outputs": [],
      "stateMutability": "nonpayable",
      "type": "function"
    },
    {
      "inputs": [
        {
          "internalType": "bytes32[]",
          "name": "_featureHashes",
          "type": "bytes32[]"
        }
      ],
      "name": "disableFeatures",
      "outputs": [],
      "stateMutability": "nonpayable",
      "type": "function"
    },
    {
      "inputs": [
        {
          "components": [
            {
              "internalType": "bytes32",
              "name": "featureHash",
              "type": "bytes32"
            },
            {
              "internalType": "uint160",
              "name": "layer",
              "type": "uint160"
            },
            {
              "internalType": "uint24",
              "name": "x",
              "type": "uint24"
            },
            {
              "internalType": "uint24",
              "name": "y",
              "type": "uint24"
            },
            {
              "internalType": "uint24",
              "name": "w",
              "type": "uint24"
            },
            {
              "internalType": "uint24",
              "name": "h",
              "type": "uint24"
            }
          ],
          "internalType": "struct FeatureData[]",
          "name": "_featureData",
          "type": "tuple[]"
        }
      ],
      "name": "enableFeatures",
      "outputs": [],
      "stateMutability": "nonpayable",
      "type": "function"
    },
    {
      "inputs": [
        {
          "internalType": "uint256",
          "name": "",
          "type": "uint256"
        }
      ],
      "name": "enabledFeatures",
      "outputs": [
        {
          "internalType": "bytes32",
          "name": "featureHash",
          "type": "bytes32"
        },
        {
          "internalType": "uint160",
          "name": "layer",
          "type": "uint160"
        },
        {
          "internalType": "uint24",
          "name": "x",
          "type": "uint24"
        },
        {
          "internalType": "uint24",
          "name": "y",
          "type": "uint24"
        },
        {
          "internalType": "uint24",
          "name": "w",
          "type": "uint24"
        },
        {
          "internalType": "uint24",
          "name": "h",
          "type": "uint24"
        }
      ],
      "stateMutability": "view",
      "type": "function"
    },
    {
      "inputs": [],
      "name": "externalURI",
      "outputs": [
        {
          "internalType": "string",
          "name": "",
          "type": "string"
        }
      ],
      "stateMutability": "view",
      "type": "function"
    },
    {
      "inputs": [
        {
          "internalType": "uint256",
          "name": "tokenId",
          "type": "uint256"
        }
      ],
      "name": "getApproved",
      "outputs": [
        {
          "internalType": "address",
          "name": "",
          "type": "address"
        }
      ],
      "stateMutability": "view",
      "type": "function"
    },
    {
      "inputs": [],
      "name": "getEnabledFeatures",
      "outputs": [
        {
          "components": [
            {
              "internalType": "bytes32",
              "name": "featureHash",
              "type": "bytes32"
            },
            {
              "internalType": "uint160",
              "name": "layer",
              "type": "uint160"
            },
            {
              "internalType": "uint24",
              "name": "x",
              "type": "uint24"
            },
            {
              "internalType": "uint24",
              "name": "y",
              "type": "uint24"
            },
            {
              "internalType": "uint24",
              "name": "w",
              "type": "uint24"
            },
            {
              "internalType": "uint24",
              "name": "h",
              "type": "uint24"
            }
          ],
          "internalType": "struct FeatureData[]",
          "name": "",
          "type": "tuple[]"
        }
      ],
      "stateMutability": "view",
      "type": "function"
    },
    {
      "inputs": [
        {
          "internalType": "uint256",
          "name": "_tokenId",
          "type": "uint256"
        }
      ],
      "name": "getFeatures",
      "outputs": [
        {
          "internalType": "string",
          "name": "",
          "type": "string"
        }
      ],
      "stateMutability": "view",
      "type": "function"
    },
    {
      "inputs": [
        {
          "internalType": "address",
          "name": "owner",
          "type": "address"
        },
        {
          "internalType": "address",
          "name": "operator",
          "type": "address"
        }
      ],
      "name": "isApprovedForAll",
      "outputs": [
        {
          "internalType": "bool",
          "name": "",
          "type": "bool"
        }
      ],
      "stateMutability": "view",
      "type": "function"
    },
    {
      "inputs": [
        {
          "internalType": "address",
          "name": "_to",
          "type": "address"
        },
        {
          "internalType": "uint256",
          "name": "_quantity",
          "type": "uint256"
        }
      ],
      "name": "mint",
      "outputs": [],
      "stateMutability": "nonpayable",
      "type": "function"
    },
    {
      "inputs": [],
      "name": "name",
      "outputs": [
        {
          "internalType": "string",
          "name": "",
          "type": "string"
        }
      ],
      "stateMutability": "view",
      "type": "function"
    },
    {
      "inputs": [],
      "name": "nftDescription",
      "outputs": [
        {
          "internalType": "string",
          "name": "",
          "type": "string"
        }
      ],
      "stateMutability": "view",
      "type": "function"
    },
    {
      "inputs": [],
      "name": "nftName",
      "outputs": [
        {
          "internalType": "string",
          "name": "",
          "type": "string"
        }
      ],
      "stateMutability": "view",
      "type": "function"
    },
    {
      "inputs": [],
      "name": "nftSymbol",
      "outputs": [
        {
          "internalType": "string",
          "name": "",
          "type": "string"
        }
      ],
      "stateMutability": "view",
      "type": "function"
    },
    {
      "inputs": [],
      "name": "owner",
      "outputs": [
        {
          "internalType": "address",
          "name": "",
          "type": "address"
        }
      ],
      "stateMutability": "view",
      "type": "function"
    },
    {
      "inputs": [
        {
          "internalType": "uint256",
          "name": "tokenId",
          "type": "uint256"
        }
      ],
      "name": "ownerOf",
      "outputs": [
        {
          "internalType": "address",
          "name": "",
          "type": "address"
        }
      ],
      "stateMutability": "view",
      "type": "function"
    },
    {
      "inputs": [],
      "name": "renounceOwnership",
      "outputs": [],
      "stateMutability": "nonpayable",
      "type": "function"
    },
    {
      "inputs": [
        {
          "internalType": "address",
          "name": "from",
          "type": "address"
        },
        {
          "internalType": "address",
          "name": "to",
          "type": "address"
        },
        {
          "internalType": "uint256",
          "name": "tokenId",
          "type": "uint256"
        }
      ],
      "name": "safeTransferFrom",
      "outputs": [],
      "stateMutability": "nonpayable",
      "type": "function"
    },
    {
      "inputs": [
        {
          "internalType": "address",
          "name": "from",
          "type": "address"
        },
        {
          "internalType": "address",
          "name": "to",
          "type": "address"
        },
        {
          "internalType": "uint256",
          "name": "tokenId",
          "type": "uint256"
        },
        {
          "internalType": "bytes",
          "name": "_data",
          "type": "bytes"
        }
      ],
      "name": "safeTransferFrom",
      "outputs": [],
      "stateMutability": "nonpayable",
      "type": "function"
    },
    {
      "inputs": [
        {
          "internalType": "uint256",
          "name": "",
          "type": "uint256"
        },
        {
          "internalType": "bytes32",
          "name": "",
          "type": "bytes32"
        }
      ],
      "name": "selectedFeatures",
      "outputs": [
        {
          "internalType": "address",
          "name": "remoteContractAddr",
          "type": "address"
        },
        {
          "internalType": "uint256",
          "name": "remoteTokenId",
          "type": "uint256"
        }
      ],
      "stateMutability": "view",
      "type": "function"
    },
    {
      "inputs": [
        {
          "internalType": "address",
          "name": "operator",
          "type": "address"
        },
        {
          "internalType": "bool",
          "name": "approved",
          "type": "bool"
        }
      ],
      "name": "setApprovalForAll",
      "outputs": [],
      "stateMutability": "nonpayable",
      "type": "function"
    },
    {
      "inputs": [
        {
          "internalType": "string",
          "name": "_bURI",
          "type": "string"
        }
      ],
      "name": "setBaseURI",
      "outputs": [],
      "stateMutability": "nonpayable",
      "type": "function"
    },
    {
      "inputs": [
        {
          "internalType": "string",
          "name": "_eURI",
          "type": "string"
        }
      ],
      "name": "setExternalURI",
      "outputs": [],
      "stateMutability": "nonpayable",
      "type": "function"
    },
    {
      "inputs": [
        {
          "internalType": "bytes4",
          "name": "interfaceId",
          "type": "bytes4"
        }
      ],
      "name": "supportsInterface",
      "outputs": [
        {
          "internalType": "bool",
          "name": "",
          "type": "bool"
        }
      ],
      "stateMutability": "view",
      "type": "function"
    },
    {
      "inputs": [],
      "name": "symbol",
      "outputs": [
        {
          "internalType": "string",
          "name": "",
          "type": "string"
        }
      ],
      "stateMutability": "view",
      "type": "function"
    },
    {
      "inputs": [
        {
          "internalType": "uint256",
          "name": "index",
          "type": "uint256"
        }
      ],
      "name": "tokenByIndex",
      "outputs": [
        {
          "internalType": "uint256",
          "name": "",
          "type": "uint256"
        }
      ],
      "stateMutability": "view",
      "type": "function"
    },
    {
      "inputs": [
        {
          "internalType": "address",
          "name": "owner",
          "type": "address"
        },
        {
          "internalType": "uint256",
          "name": "index",
          "type": "uint256"
        }
      ],
      "name": "tokenOfOwnerByIndex",
      "outputs": [
        {
          "internalType": "uint256",
          "name": "",
          "type": "uint256"
        }
      ],
      "stateMutability": "view",
      "type": "function"
    },
    {
      "inputs": [
        {
          "internalType": "uint256",
          "name": "_tokenId",
          "type": "uint256"
        }
      ],
      "name": "tokenURI",
      "outputs": [
        {
          "internalType": "string",
          "name": "",
          "type": "string"
        }
      ],
      "stateMutability": "view",
      "type": "function"
    },
    {
      "inputs": [],
      "name": "totalSupply",
      "outputs": [
        {
          "internalType": "uint256",
          "name": "",
          "type": "uint256"
        }
      ],
      "stateMutability": "view",
      "type": "function"
    },
    {
      "inputs": [
        {
          "internalType": "address",
          "name": "from",
          "type": "address"
        },
        {
          "internalType": "address",
          "name": "to",
          "type": "address"
        },
        {
          "internalType": "uint256",
          "name": "tokenId",
          "type": "uint256"
        }
      ],
      "name": "transferFrom",
      "outputs": [],
      "stateMutability": "nonpayable",
      "type": "function"
    },
    {
      "inputs": [
        {
          "internalType": "address",
          "name": "newOwner",
          "type": "address"
        }
      ],
      "name": "transferOwnership",
      "outputs": [],
      "stateMutability": "nonpayable",
      "type": "function"
    },
    {
      "inputs": [],
      "name": "withdraw",
      "outputs": [],
      "stateMutability": "nonpayable",
      "type": "function"
    },
    {
      "inputs": [
        {
          "internalType": "contract IERC20",
          "name": "_token",
          "type": "address"
        }
      ],
      "name": "withdrawTokens",
      "outputs": [],
      "stateMutability": "nonpayable",
      "type": "function"
    }
  ],
  "bytecode": "0x60806040523480156200001157600080fd5b5060405162003eb438038062003eb48339810160408190526200003491620002c3565b60405180604001604052806008815260200167686f73746e616d6560c01b815250604051806040016040528060088152602001673437b9ba39bcb6b160c11b81525081600090805190602001906200008e92919062000150565b508051620000a490600190602084019062000150565b505050620000c1620000bb620000fa60201b60201c565b620000fe565b6001600b558151620000db90600c90602085019062000150565b508051620000f190600d90602084019062000150565b50505062000369565b3390565b600a80546001600160a01b038381166001600160a01b0319831681179093556040519116919082907f8be0079c531659141344cd1fd0a4f28419497f9722a3daafe3b4186f6b6457e090600090a35050565b8280546200015e906200032d565b90600052602060002090601f016020900481019282620001825760008555620001cd565b82601f106200019d57805160ff1916838001178555620001cd565b82800160010185558215620001cd579182015b82811115620001cd578251825591602001919060010190620001b0565b50620001db929150620001df565b5090565b5b80821115620001db5760008155600101620001e0565b634e487b7160e01b600052604160045260246000fd5b600082601f8301126200021e57600080fd5b81516001600160401b03808211156200023b576200023b620001f6565b604051601f8301601f19908116603f01168101908282118183101715620002665762000266620001f6565b816040528381526020925086838588010111156200028357600080fd5b600091505b83821015620002a7578582018301518183018401529082019062000288565b83821115620002b95760008385830101525b9695505050505050565b60008060408385031215620002d757600080fd5b82516001600160401b0380821115620002ef57600080fd5b620002fd868387016200020c565b935060208501519150808211156200031457600080fd5b5062000323858286016200020c565b9150509250929050565b600181811c908216806200034257607f821691505b6020821081036200036357634e487b7160e01b600052602260045260246000fd5b50919050565b613b3b80620003796000396000f3fe608060405234801561001057600080fd5b50600436106102265760003560e01c80636352211e11610130578063a22cb465116100b8578063dea4f92d1161007c578063dea4f92d1461053c578063debe12511461054f578063e985e9c514610562578063f2fde38b1461059e578063f71373f0146105b157600080fd5b8063a22cb4651461049b578063b82c0e26146104ae578063b88d4fde14610503578063c87b56dd14610516578063d08b4add1461052957600080fd5b8063715018a6116100ff578063715018a61461040a57806374542f6f146104125780637f8861c9146104255780638da5cb5b1461048257806395d89b411461049357600080fd5b80636352211e146103c75780636c0360eb146103da5780636d8f4b55146103e257806370a08231146103f757600080fd5b80633ccfd60b116101b35780634c82b957116101825780634c82b957146103735780634f6ccce71461038657806355f804b3146103995780635a2b4b74146103ac5780635ecf091f146103bf57600080fd5b80633ccfd60b1461033257806340c10f191461033a57806342842e0e1461034d57806349df728c1461036057600080fd5b8063095ea7b3116101fa578063095ea7b3146102be57806312c0f3d3146102d357806318160ddd146102fa57806323b872dd1461030c5780632f745c591461031f57600080fd5b80628bfb001461022b57806301ffc9a71461026857806306fdde031461028b578063081812fc14610293575b600080fd5b61025260405180604001604052806008815260200167686f73746e616d6560c01b81525081565b60405161025f9190612ef1565b60405180910390f35b61027b610276366004612f1a565b6105da565b604051901515815260200161025f565b610252610605565b6102a66102a1366004612f37565b610697565b6040516001600160a01b03909116815260200161025f565b6102d16102cc366004612f65565b610731565b005b610252604051806040016040528060088152602001673437b9ba39bcb6b160c11b81525081565b6008545b60405190815260200161025f565b6102d161031a366004612f91565b610846565b6102fe61032d366004612f65565b610877565b6102d161090d565b6102d1610348366004612f65565b6109a3565b6102d161035b366004612f91565b6109fc565b6102d161036e366004612fd2565b610a17565b6102d1610381366004612fef565b610b49565b6102fe610394366004612f37565b6110a2565b6102d16103a7366004613064565b611135565b6102d16103ba366004613110565b6111a8565b6102526113da565b6102a66103d5366004612f37565b611468565b6102526114df565b6103ea6114ec565b60405161025f9190613152565b6102fe610405366004612fd2565b6115a1565b6102d1611628565b610252610420366004612f37565b61165e565b6104636104333660046131df565b600f602090815260009283526040808420909152908252902080546001909101546001600160a01b039091169082565b604080516001600160a01b03909316835260208301919091520161025f565b600a546001600160a01b03166102a6565b610252611986565b6102d16104a936600461320f565b611995565b6104c16104bc366004612f37565b6119a0565b604080519687526001600160a01b03909516602087015262ffffff938416948601949094529082166060850152811660808401521660a082015260c00161025f565b6102d161051136600461325e565b611a03565b610252610524366004612f37565b611a35565b6102d1610537366004613064565b611aa2565b6102d161054a36600461333e565b611b09565b6102d161055d36600461338a565b611c81565b61027b610570366004613409565b6001600160a01b03918216600090815260056020908152604080832093909416825291909152205460ff1690565b6102d16105ac366004612fd2565b612089565b6102526040518060400160405280600a8152602001691bd8db999d081a1bdcdd60b21b81525081565b60006001600160e01b0319821663780e9d6360e01b14806105ff57506105ff82612121565b92915050565b60606000805461061490613437565b80601f016020809104026020016040519081016040528092919081815260200182805461064090613437565b801561068d5780601f106106625761010080835404028352916020019161068d565b820191906000526020600020905b81548152906001019060200180831161067057829003601f168201915b5050505050905090565b6000818152600260205260408120546001600160a01b03166107155760405162461bcd60e51b815260206004820152602c60248201527f4552433732313a20617070726f76656420717565727920666f72206e6f6e657860448201526b34b9ba32b73a103a37b5b2b760a11b60648201526084015b60405180910390fd5b506000908152600460205260409020546001600160a01b031690565b600061073c82611468565b9050806001600160a01b0316836001600160a01b0316036107a95760405162461bcd60e51b815260206004820152602160248201527f4552433732313a20617070726f76616c20746f2063757272656e74206f776e656044820152603960f91b606482015260840161070c565b336001600160a01b03821614806107c557506107c58133610570565b6108375760405162461bcd60e51b815260206004820152603860248201527f4552433732313a20617070726f76652063616c6c6572206973206e6f74206f7760448201527f6e6572206e6f7220617070726f76656420666f7220616c6c0000000000000000606482015260840161070c565b6108418383612171565b505050565b61085033826121df565b61086c5760405162461bcd60e51b815260040161070c90613471565b6108418383836122d6565b6000610882836115a1565b82106108e45760405162461bcd60e51b815260206004820152602b60248201527f455243373231456e756d657261626c653a206f776e657220696e646578206f7560448201526a74206f6620626f756e647360a81b606482015260840161070c565b506001600160a01b03919091166000908152600660209081526040808320938352929052205490565b600a546001600160a01b031633146109375760405162461bcd60e51b815260040161070c906134c2565b604051600090339047908381818185875af1925050503d8060008114610979576040519150601f19603f3d011682016040523d82523d6000602084013e61097e565b606091505b50509050806109a0576040516367b2cd0560e01b815260040160405180910390fd5b50565b600a546001600160a01b031633146109cd5760405162461bcd60e51b815260040161070c906134c2565b60005b81811015610841576109ea836109e560085490565b6122ef565b806109f48161350d565b9150506109d0565b61084183838360405180602001604052806000815250611a03565b600a546001600160a01b03163314610a415760405162461bcd60e51b815260040161070c906134c2565b6040516370a0823160e01b81523060048201526000906001600160a01b0383169063a9059cbb90339083906370a0823190602401602060405180830381865afa158015610a92573d6000803e3d6000fd5b505050506040513d601f19601f82011682018060405250810190610ab69190613526565b6040516001600160e01b031960e085901b1681526001600160a01b03909216600483015260248201526044016020604051808303816000875af1158015610b01573d6000803e3d6000fd5b505050506040513d601f19601f82011682018060405250810190610b25919061353f565b905080610b45576040516367b2cd0560e01b815260040160405180910390fd5b5050565b600a546001600160a01b03163314610b735760405162461bcd60e51b815260040161070c906134c2565b6000805b8281101561109c5760005b600e54811015610e4f57848483818110610b9e57610b9e61355c565b905060c0020160000135600e8281548110610bbb57610bbb61355c565b90600052602060002090600202016000015403610e3d57848483818110610be457610be461355c565b905060c002016020016020810190610bfc9190612fd2565b600e8281548110610c0f57610c0f61355c565b906000526020600020906002020160010160006101000a8154816001600160a01b0302191690836001600160a01b03160217905550848483818110610c5657610c5661355c565b905060c002016040016020810190610c6e9190613572565b600e8281548110610c8157610c8161355c565b906000526020600020906002020160010160146101000a81548162ffffff021916908362ffffff160217905550848483818110610cc057610cc061355c565b905060c002016060016020810190610cd89190613572565b600e8281548110610ceb57610ceb61355c565b906000526020600020906002020160010160176101000a81548162ffffff021916908362ffffff160217905550848483818110610d2a57610d2a61355c565b905060c002016080016020810190610d429190613572565b600e8281548110610d5557610d5561355c565b9060005260206000209060020201600101601a6101000a81548162ffffff021916908362ffffff160217905550848483818110610d9457610d9461355c565b905060c0020160a0016020810190610dac9190613572565b600e8281548110610dbf57610dbf61355c565b9060005260206000209060020201600101601d6101000a81548162ffffff021916908362ffffff16021790555060019250848483818110610e0257610e0261355c565b905060c00201600001357fe6897b65c4fa3e8a9f7fda59418d0968181c5070a75105fe4a4384cd3b89626560405160405180910390a2610e4f565b80610e478161350d565b915050610b82565b5081151560000361108a57600e6040518060c00160405280868685818110610e7957610e7961355c565b905060c00201600001358152602001868685818110610e9a57610e9a61355c565b905060c002016020016020810190610eb29190612fd2565b6001600160a01b03168152602001868685818110610ed257610ed261355c565b905060c002016040016020810190610eea9190613572565b62ffffff168152602001868685818110610f0657610f0661355c565b905060c002016060016020810190610f1e9190613572565b62ffffff168152602001868685818110610f3a57610f3a61355c565b905060c002016080016020810190610f529190613572565b62ffffff168152602001868685818110610f6e57610f6e61355c565b905060c0020160a0016020810190610f869190613572565b62ffffff90811690915282546001818101855560009485526020948590208451600290930201918255938301519301805460408401516060850151608086015160a0909601518516600160e81b026001600160e81b03968616600160d01b0262ffffff60d01b19928716600160b81b029290921665ffffffffffff60b81b1993909616600160a01b026001600160b81b03199094166001600160a01b039098169790971792909217169290921791909117919091169190911790558383828181106110535761105361355c565b905060c00201600001357f7bf288ebab1c13759a3223c56ea64f06750d870ba672b05dfed1e36dc651c08760405160405180910390a25b806110948161350d565b915050610b77565b50505050565b60006110ad60085490565b82106111105760405162461bcd60e51b815260206004820152602c60248201527f455243373231456e756d657261626c653a20676c6f62616c20696e646578206f60448201526b7574206f6620626f756e647360a01b606482015260840161070c565b600882815481106111235761112361355c565b90600052602060002001549050919050565b600a546001600160a01b0316331461115f5760405162461bcd60e51b815260040161070c906134c2565b61116b600c8383612e00565b507ff9c7803e94e0d3c02900d8a90893a6d5e90dd04d32a4cfe825520f82bf9f32f6600c60405161119c9190613597565b60405180910390a15050565b600a546001600160a01b031633146111d25760405162461bcd60e51b815260040161070c906134c2565b60005b818110156108415760005b600e548110156113c7578383838181106111fc576111fc61355c565b90506020020135600e82815481106112165761121661355c565b906000526020600020906002020160000154036113b557600e805461123d9060019061361a565b8154811061124d5761124d61355c565b9060005260206000209060020201600e828154811061126e5761126e61355c565b600091825260209091208254600290920201908155600191820180549290910180546001600160a01b031981166001600160a01b039094169384178255825462ffffff600160a01b9182900481169091026001600160b81b0319909216909417178082558254600160b81b9081900485160262ffffff60b81b198216811783558354600160d01b9081900486160262ffffff60d01b1990911665ffffffffffff60b81b1990921691909117178082559154600160e81b908190049093169092026001600160e81b03909116179055600e80548061134d5761134d613631565b60008281526020812060026000199093019283020181815560010155905583838381811061137d5761137d61355c565b905060200201357f3e934160a539fd8be6249e912b68b666d4fe4e1cc7d8051d57f50ba465fe318360405160405180910390a26113c7565b806113bf8161350d565b9150506111e0565b50806113d28161350d565b9150506111d5565b600d80546113e790613437565b80601f016020809104026020016040519081016040528092919081815260200182805461141390613437565b80156114605780601f1061143557610100808354040283529160200191611460565b820191906000526020600020905b81548152906001019060200180831161144357829003601f168201915b505050505081565b6000818152600260205260408120546001600160a01b0316806105ff5760405162461bcd60e51b815260206004820152602960248201527f4552433732313a206f776e657220717565727920666f72206e6f6e657869737460448201526832b73a103a37b5b2b760b91b606482015260840161070c565b600c80546113e790613437565b6060600e805480602002602001604051908101604052809291908181526020016000905b828210156115985760008481526020908190206040805160c08101825260028602909201805483526001908101546001600160a01b0381168486015262ffffff600160a01b8204811693850193909352600160b81b810483166060850152600160d01b810483166080850152600160e81b900490911660a08301529083529092019101611510565b50505050905090565b60006001600160a01b03821661160c5760405162461bcd60e51b815260206004820152602a60248201527f4552433732313a2062616c616e636520717565727920666f7220746865207a65604482015269726f206164647265737360b01b606482015260840161070c565b506001600160a01b031660009081526003602052604090205490565b600a546001600160a01b031633146116525760405162461bcd60e51b815260040161070c906134c2565b61165c600061243d565b565b6000818152600260205260409020546060906001600160a01b03161515151560000361169d57604051634c067a5960e01b815260040160405180910390fd5b6040805180820190915260018152607b60f81b6020820152600e5460005b8181101561195c57826116fc600e83815481106116da576116da61355c565b60009182526020909120600160029092020101546001600160a01b031661248f565b611728600e84815481106117125761171261355c565b6000918252602090912060029091020154612590565b6000888152600f60205260408120600e805461177f939190889081106117505761175061355c565b6000918252602080832060029092029091015483528201929092526040019020546001600160a01b0316612590565b6000898152600f60205260408120600e80546117d0939190899081106117a7576117a761355c565b90600052602060002090600202016000015481526020019081526020016000206001015461248f565b6040516020016117e4959493929190613647565b604051602081830303815290604052925082611831600e838154811061180c5761180c61355c565b6000918252602090912060029091020160010154600160a01b900462ffffff1661248f565b61186c600e84815481106118475761184761355c565b6000918252602090912060029091020160010154600160b81b900462ffffff1661248f565b6118a7600e85815481106118825761188261355c565b6000918252602090912060029091020160010154600160d01b900462ffffff1661248f565b6118e2600e86815481106118bd576118bd61355c565b6000918252602090912060029091020160010154600160e81b900462ffffff1661248f565b6118ed60018861361a565b861461191257604051806040016040528060018152602001600b60fa1b815250611923565b604051806020016040528060008152505b604051602001611938969594939291906136f2565b604051602081830303815290604052925080806119549061350d565b9150506116bb565b508160405160200161196e91906137ab565b60408051601f19818403018152919052949350505050565b60606001805461061490613437565b610b453383836125e7565b600e81815481106119b057600080fd5b6000918252602090912060029091020180546001909101549091506001600160a01b0381169062ffffff600160a01b8204811691600160b81b8104821691600160d01b8204811691600160e81b90041686565b611a0d33836121df565b611a295760405162461bcd60e51b815260040161070c90613471565b61109c848484846126b5565b6000818152600260205260409020546060906001600160a01b031615151515600003611a7457604051634c067a5960e01b815260040160405180910390fd5b6000611a7e6126e8565b5111611a9957604051806020016040528060008152506105ff565b6105ff826126f7565b600a546001600160a01b03163314611acc5760405162461bcd60e51b815260040161070c906134c2565b611ad8600d8383612e00565b507f661def630555bcee913667c40812d896fe127981e7273b78357894b4ba17c2e5600d60405161119c9190613597565b6000838152600260205260408120546001600160a01b031615159003611b4257604051634c067a5960e01b815260040160405180910390fd5b611b4b83611468565b6001600160a01b0316336001600160a01b031614611b7c57604051637ad7e56760e11b815260040160405180910390fd5b60005b8181101561109c576000848152600f6020526040812081858585818110611ba857611ba861355c565b90506020020135815260200190815260200160002060000160006101000a8154816001600160a01b0302191690836001600160a01b031602179055506000600f60008681526020019081526020016000206000858585818110611c0d57611c0d61355c565b90506020020135815260200190815260200160002060010181905550828282818110611c3b57611c3b61355c565b90506020020135847f55ce41d961a3b64c2017c30a6e3385bc807f447a5a8132bf5f91ad63b44f00a560405160405180910390a380611c798161350d565b915050611b7f565b6002600b5403611cd35760405162461bcd60e51b815260206004820152601f60248201527f5265656e7472616e637947756172643a207265656e7472616e742063616c6c00604482015260640161070c565b6002600b55611cf9836000908152600260205260409020546001600160a01b0316151590565b1515600003611d1b57604051634c067a5960e01b815260040160405180910390fd5b611d2483611468565b6001600160a01b0316336001600160a01b031614611d5557604051637ad7e56760e11b815260040160405180910390fd5b8060005b81811015611ea1576000848483818110611d7557611d7561355c565b9050606002016020016020810190611d8d9190612fd2565b6001600160a01b031603611db45760405163cbdd34cf60e01b815260040160405180910390fd5b33848483818110611dc757611dc761355c565b9050606002016020016020810190611ddf9190612fd2565b6001600160a01b0316636352211e868685818110611dff57611dff61355c565b905060600201604001356040518263ffffffff1660e01b8152600401611e2791815260200190565b602060405180830381865afa158015611e44573d6000803e3d6000fd5b505050506040513d601f19601f82011682018060405250810190611e6891906137d0565b6001600160a01b031614611e8f57604051632e73dbcd60e01b815260040160405180910390fd5b80611e998161350d565b915050611d59565b5060005b8181101561207d57600e54600090815b81811015611f1e57868685818110611ecf57611ecf61355c565b90506060020160000135600e8281548110611eec57611eec61355c565b90600052602060002090600202016000015403611f0c5760019250611f1e565b80611f168161350d565b915050611eb5565b5081611f3d57604051630292ca1560e11b815260040160405180910390fd5b858584818110611f4f57611f4f61355c565b9050606002016020016020810190611f679190612fd2565b6000888152600f6020526040812090888887818110611f8857611f8861355c565b6060029190910135825250602081019190915260400160002080546001600160a01b0319166001600160a01b0392909216919091179055858584818110611fd157611fd161355c565b90506060020160400135600f600089815260200190815260200160002060008888878181106120025761200261355c565b60600291909101358252506020810191909152604001600020600101558585848181106120315761203161355c565b90506060020160000135877f03c950897cc44b1c51fb8355b538e2888f2f2b59cb36d4d9e822febf49da3deb60405160405180910390a3505080806120759061350d565b915050611ea5565b50506001600b55505050565b600a546001600160a01b031633146120b35760405162461bcd60e51b815260040161070c906134c2565b6001600160a01b0381166121185760405162461bcd60e51b815260206004820152602660248201527f4f776e61626c653a206e6577206f776e657220697320746865207a65726f206160448201526564647265737360d01b606482015260840161070c565b6109a08161243d565b60006001600160e01b031982166380ac58cd60e01b148061215257506001600160e01b03198216635b5e139f60e01b145b806105ff57506301ffc9a760e01b6001600160e01b03198316146105ff565b600081815260046020526040902080546001600160a01b0319166001600160a01b03841690811790915581906121a682611468565b6001600160a01b03167f8c5be1e5ebec7d5bd14f71427d1e84f3dd0314c0f7b2291e5b200ac8c7c3b92560405160405180910390a45050565b6000818152600260205260408120546001600160a01b03166122585760405162461bcd60e51b815260206004820152602c60248201527f4552433732313a206f70657261746f7220717565727920666f72206e6f6e657860448201526b34b9ba32b73a103a37b5b2b760a11b606482015260840161070c565b600061226383611468565b9050806001600160a01b0316846001600160a01b031614806122aa57506001600160a01b0380821660009081526005602090815260408083209388168352929052205460ff165b806122ce5750836001600160a01b03166122c384610697565b6001600160a01b0316145b949350505050565b604051630f7eca6d60e41b815260040160405180910390fd5b6001600160a01b0382166123455760405162461bcd60e51b815260206004820181905260248201527f4552433732313a206d696e7420746f20746865207a65726f2061646472657373604482015260640161070c565b6000818152600260205260409020546001600160a01b0316156123aa5760405162461bcd60e51b815260206004820152601c60248201527f4552433732313a20746f6b656e20616c7265616479206d696e74656400000000604482015260640161070c565b6123b6600083836127af565b6001600160a01b03821660009081526003602052604081208054600192906123df9084906137ed565b909155505060008181526002602052604080822080546001600160a01b0319166001600160a01b03861690811790915590518392907fddf252ad1be2c89b69c2b068fc378daa952ba7f163c4a11628f55a4df523b3ef908290a45050565b600a80546001600160a01b038381166001600160a01b0319831681179093556040519116919082907f8be0079c531659141344cd1fd0a4f28419497f9722a3daafe3b4186f6b6457e090600090a35050565b6060816000036124b65750506040805180820190915260018152600360fc1b602082015290565b8160005b81156124e057806124ca8161350d565b91506124d99050600a8361381b565b91506124ba565b60008167ffffffffffffffff8111156124fb576124fb613248565b6040519080825280601f01601f191660200182016040528015612525576020820181803683370190505b5090505b84156122ce5761253a60018361361a565b9150612547600a8661382f565b6125529060306137ed565b60f81b8183815181106125675761256761355c565b60200101906001600160f81b031916908160001a905350612589600a8661381b565b9450612529565b6060816000036125ba5750506040805180820190915260048152630307830360e41b602082015290565b8160005b81156125dd57806125ce8161350d565b915050600882901c91506125be565b6122ce8482612867565b816001600160a01b0316836001600160a01b0316036126485760405162461bcd60e51b815260206004820152601960248201527f4552433732313a20617070726f766520746f2063616c6c657200000000000000604482015260640161070c565b6001600160a01b03838116600081815260056020908152604080832094871680845294825291829020805460ff191686151590811790915591519182527f17307eab39ab6107e8899845ad3d59bd9653f200f220920489ca2b5937696c31910160405180910390a3505050565b6126c08484846122d6565b6126cc84848484612a0a565b61109c5760405162461bcd60e51b815260040161070c90613843565b6060600c805461061490613437565b606060006127048361248f565b9050600060405180604001604052806008815260200167686f73746e616d6560c01b8152506040518060400160405280600a8152602001691bd8db999d081a1bdcdd60b21b815250600c84600d8660405160200161276796959493929190613904565b6040516020818303038152906040529050600061278382612b0b565b90508060405160200161279691906139f1565b6040516020818303038152906040529350505050919050565b6001600160a01b03831661280a5761280581600880546000838152600960205260408120829055600182018355919091527ff3f7a9fe364faab93b216da50a3214154f22a0a2b415b23a84c8169e8b636ee30155565b61282d565b816001600160a01b0316836001600160a01b03161461282d5761282d8382612c70565b6001600160a01b0382166128445761084181612d0d565b826001600160a01b0316826001600160a01b031614610841576108418282612dbc565b60606000612876836002613a36565b6128819060026137ed565b67ffffffffffffffff81111561289957612899613248565b6040519080825280601f01601f1916602001820160405280156128c3576020820181803683370190505b509050600360fc1b816000815181106128de576128de61355c565b60200101906001600160f81b031916908160001a905350600f60fb1b8160018151811061290d5761290d61355c565b60200101906001600160f81b031916908160001a9053506000612931846002613a36565b61293c9060016137ed565b90505b60018111156129b4576f181899199a1a9b1b9c1cb0b131b232b360811b85600f16601081106129705761297061355c565b1a60f81b8282815181106129865761298661355c565b60200101906001600160f81b031916908160001a90535060049490941c936129ad81613a55565b905061293f565b508315612a035760405162461bcd60e51b815260206004820181905260248201527f537472696e67733a20686578206c656e67746820696e73756666696369656e74604482015260640161070c565b9392505050565b60006001600160a01b0384163b15612b0057604051630a85bd0160e11b81526001600160a01b0385169063150b7a0290612a4e903390899088908890600401613a6c565b6020604051808303816000875af1925050508015612a89575060408051601f3d908101601f19168201909252612a8691810190613aa8565b60015b612ae6573d808015612ab7576040519150601f19603f3d011682016040523d82523d6000602084013e612abc565b606091505b508051600003612ade5760405162461bcd60e51b815260040161070c90613843565b805181602001fd5b6001600160e01b031916630a85bd0160e11b1490506122ce565b506001949350505050565b60608151600003612b2a57505060408051602081019091526000815290565b6000604051806060016040528060408152602001613ac66040913990506000600384516002612b5991906137ed565b612b63919061381b565b612b6e906004613a36565b90506000612b7d8260206137ed565b67ffffffffffffffff811115612b9557612b95613248565b6040519080825280601f01601f191660200182016040528015612bbf576020820181803683370190505b509050818152600183018586518101602084015b81831015612c2b576003830192508251603f8160121c168501518253600182019150603f81600c1c168501518253600182019150603f8160061c168501518253600182019150603f8116850151825350600101612bd3565b600389510660018114612c455760028114612c5657612c62565b613d3d60f01b600119830152612c62565b603d60f81b6000198301525b509398975050505050505050565b60006001612c7d846115a1565b612c87919061361a565b600083815260076020526040902054909150808214612cda576001600160a01b03841660009081526006602090815260408083208584528252808320548484528184208190558352600790915290208190555b5060009182526007602090815260408084208490556001600160a01b039094168352600681528383209183525290812055565b600854600090612d1f9060019061361a565b60008381526009602052604081205460088054939450909284908110612d4757612d4761355c565b906000526020600020015490508060088381548110612d6857612d6861355c565b6000918252602080832090910192909255828152600990915260408082208490558582528120556008805480612da057612da0613631565b6001900381819060005260206000200160009055905550505050565b6000612dc7836115a1565b6001600160a01b039093166000908152600660209081526040808320868452825280832085905593825260079052919091209190915550565b828054612e0c90613437565b90600052602060002090601f016020900481019282612e2e5760008555612e74565b82601f10612e475782800160ff19823516178555612e74565b82800160010185558215612e74579182015b82811115612e74578235825591602001919060010190612e59565b50612e80929150612e84565b5090565b5b80821115612e805760008155600101612e85565b60005b83811015612eb4578181015183820152602001612e9c565b8381111561109c5750506000910152565b60008151808452612edd816020860160208601612e99565b601f01601f19169290920160200192915050565b602081526000612a036020830184612ec5565b6001600160e01b0319811681146109a057600080fd5b600060208284031215612f2c57600080fd5b8135612a0381612f04565b600060208284031215612f4957600080fd5b5035919050565b6001600160a01b03811681146109a057600080fd5b60008060408385031215612f7857600080fd5b8235612f8381612f50565b946020939093013593505050565b600080600060608486031215612fa657600080fd5b8335612fb181612f50565b92506020840135612fc181612f50565b929592945050506040919091013590565b600060208284031215612fe457600080fd5b8135612a0381612f50565b6000806020838503121561300257600080fd5b823567ffffffffffffffff8082111561301a57600080fd5b818501915085601f83011261302e57600080fd5b81358181111561303d57600080fd5b86602060c08302850101111561305257600080fd5b60209290920196919550909350505050565b6000806020838503121561307757600080fd5b823567ffffffffffffffff8082111561308f57600080fd5b818501915085601f8301126130a357600080fd5b8135818111156130b257600080fd5b86602082850101111561305257600080fd5b60008083601f8401126130d657600080fd5b50813567ffffffffffffffff8111156130ee57600080fd5b6020830191508360208260051b850101111561310957600080fd5b9250929050565b6000806020838503121561312357600080fd5b823567ffffffffffffffff81111561313a57600080fd5b613146858286016130c4565b90969095509350505050565b602080825282518282018190526000919060409081850190868401855b828110156131d257815180518552868101516001600160a01b0316878601528581015162ffffff9081168787015260608083015182169087015260808083015182169087015260a091820151169085015260c0909301929085019060010161316f565b5091979650505050505050565b600080604083850312156131f257600080fd5b50508035926020909101359150565b80151581146109a057600080fd5b6000806040838503121561322257600080fd5b823561322d81612f50565b9150602083013561323d81613201565b809150509250929050565b634e487b7160e01b600052604160045260246000fd5b6000806000806080858703121561327457600080fd5b843561327f81612f50565b9350602085013561328f81612f50565b925060408501359150606085013567ffffffffffffffff808211156132b357600080fd5b818701915087601f8301126132c757600080fd5b8135818111156132d9576132d9613248565b604051601f8201601f19908116603f0116810190838211818310171561330157613301613248565b816040528281528a602084870101111561331a57600080fd5b82602086016020830137600060208483010152809550505050505092959194509250565b60008060006040848603121561335357600080fd5b83359250602084013567ffffffffffffffff81111561337157600080fd5b61337d868287016130c4565b9497909650939450505050565b60008060006040848603121561339f57600080fd5b83359250602084013567ffffffffffffffff808211156133be57600080fd5b818601915086601f8301126133d257600080fd5b8135818111156133e157600080fd5b8760206060830285010111156133f657600080fd5b6020830194508093505050509250925092565b6000806040838503121561341c57600080fd5b823561342781612f50565b9150602083013561323d81612f50565b600181811c9082168061344b57607f821691505b60208210810361346b57634e487b7160e01b600052602260045260246000fd5b50919050565b60208082526031908201527f4552433732313a207472616e736665722063616c6c6572206973206e6f74206f6040820152701ddb995c881b9bdc88185c1c1c9bdd9959607a1b606082015260800190565b6020808252818101527f4f776e61626c653a2063616c6c6572206973206e6f7420746865206f776e6572604082015260600190565b634e487b7160e01b600052601160045260246000fd5b60006001820161351f5761351f6134f7565b5060010190565b60006020828403121561353857600080fd5b5051919050565b60006020828403121561355157600080fd5b8151612a0381613201565b634e487b7160e01b600052603260045260246000fd5b60006020828403121561358457600080fd5b813562ffffff81168114612a0357600080fd5b60006020808352600084546135ab81613437565b808487015260406001808416600081146135cc57600181146135e057612c62565b60ff19851689840152606089019550612c62565b896000528660002060005b858110156136065781548b82018601529083019088016135eb565b909901929092019998505050505050505050565b60008282101561362c5761362c6134f7565b500390565b634e487b7160e01b600052603160045260246000fd5b60008651613659818460208b01612e99565b601160f91b9083019081528651613677816001840160208b01612e99565b63111d2d9160e11b60019290910191820152855161369c816005840160208a01612e99565b6211161160e91b6005929091019182015284516136c0816008840160208901612e99565b61088b60f21b6008929091019182015283516136e381600a840160208801612e99565b01600a01979650505050505050565b6000875160206137058285838d01612e99565b8184019150600b60fa1b80835289516137248160018601858e01612e99565b6001930192830181905288516137408160028601858d01612e99565b60029301928301819052875161375c8160038601858c01612e99565b600393019283015285516137768160048501848a01612e99565b605d60f81b6004939091019283015284516137978160058501848901612e99565b919091016005019998505050505050505050565b600082516137bd818460208701612e99565b607d60f81b920191825250600101919050565b6000602082840312156137e257600080fd5b8151612a0381612f50565b60008219821115613800576138006134f7565b500190565b634e487b7160e01b600052601260045260246000fd5b60008261382a5761382a613805565b500490565b60008261383e5761383e613805565b500690565b60208082526032908201527f4552433732313a207472616e7366657220746f206e6f6e20455243373231526560408201527131b2b4bb32b91034b6b83632b6b2b73a32b960711b606082015260800190565b600081546138a281613437565b600182811680156138ba57600181146138cb576138fa565b60ff198416875282870194506138fa565b8560005260208060002060005b858110156138f15781548a8201529084019082016138d8565b50505082870194505b5050505092915050565b683d913730b6b2911d1160b91b81528651600090613929816009850160208c01612e99565b701116113232b9b1b934b83a34b7b7111d1160791b600991840191820152875161395a81601a840160208c01612e99565b6a11161134b6b0b3b2911d1160a91b601a92909101918201526139806025820188613895565b90508551613992818360208a01612e99565b7f2e706e67222c2265787465726e616c5f75726c223a220000000000000000000091019081526139c56016820186613895565b905083516139d7818360208801612e99565b61227d60f01b910190815260020198975050505050505050565b7f646174613a6170706c69636174696f6e2f6a736f6e3b6261736536342c000000815260008251613a2981601d850160208701612e99565b91909101601d0192915050565b6000816000190483118215151615613a5057613a506134f7565b500290565b600081613a6457613a646134f7565b506000190190565b60006001600160a01b03808716835280861660208401525083604083015260806060830152613a9e6080830184612ec5565b9695505050505050565b600060208284031215613aba57600080fd5b8151612a0381612f0456fe4142434445464748494a4b4c4d4e4f505152535455565758595a6162636465666768696a6b6c6d6e6f707172737475767778797a303132333435363738392b2fa264697066735822122089300cfa927ef453b7768f967dcc2673b3b464680ccd5a05c44b952f514aa01164736f6c634300080d0033",
  "linkReferences": {},
  "deployedLinkReferences": {}
}