{
  "_format": "hh-sol-artifact-1",
  "contractName": "NFT_721E",
  "sourceName": "contracts/NFT_721E.sol",
  "abi": [
    {
      "inputs": [
        {
          "internalType": "string",
          "name": "_bURI",
          "type": "string"
        },
        {
          "internalType": "string",
          "name": "_eURI",
          "type": "string"
        }
      ],
      "stateMutability": "nonpayable",
      "type": "constructor"
    },
    {
      "inputs": [],
      "name": "invalidTokenId",
      "type": "error"
    },
    {
      "inputs": [],
      "name": "withdrawFailed",
      "type": "error"
    },
    {
      "anonymous": false,
      "inputs": [
        {
          "indexed": true,
          "internalType": "address",
          "name": "owner",
          "type": "address"
        },
        {
          "indexed": true,
          "internalType": "address",
          "name": "approved",
          "type": "address"
        },
        {
          "indexed": true,
          "internalType": "uint256",
          "name": "tokenId",
          "type": "uint256"
        }
      ],
      "name": "Approval",
      "type": "event"
    },
    {
      "anonymous": false,
      "inputs": [
        {
          "indexed": true,
          "internalType": "address",
          "name": "owner",
          "type": "address"
        },
        {
          "indexed": true,
          "internalType": "address",
          "name": "operator",
          "type": "address"
        },
        {
          "indexed": false,
          "internalType": "bool",
          "name": "approved",
          "type": "bool"
        }
      ],
      "name": "ApprovalForAll",
      "type": "event"
    },
    {
      "anonymous": false,
      "inputs": [
        {
          "indexed": false,
          "internalType": "string",
          "name": "baseURI",
          "type": "string"
        }
      ],
      "name": "BaseURISet",
      "type": "event"
    },
    {
      "anonymous": false,
      "inputs": [
        {
          "indexed": false,
          "internalType": "string",
          "name": "externalURI",
          "type": "string"
        }
      ],
      "name": "ExternalURISet",
      "type": "event"
    },
    {
      "anonymous": false,
      "inputs": [
        {
          "indexed": true,
          "internalType": "address",
          "name": "previousOwner",
          "type": "address"
        },
        {
          "indexed": true,
          "internalType": "address",
          "name": "newOwner",
          "type": "address"
        }
      ],
      "name": "OwnershipTransferred",
      "type": "event"
    },
    {
      "anonymous": false,
      "inputs": [
        {
          "indexed": true,
          "internalType": "address",
          "name": "from",
          "type": "address"
        },
        {
          "indexed": true,
          "internalType": "address",
          "name": "to",
          "type": "address"
        },
        {
          "indexed": true,
          "internalType": "uint256",
          "name": "tokenId",
          "type": "uint256"
        }
      ],
      "name": "Transfer",
      "type": "event"
    },
    {
      "inputs": [
        {
          "internalType": "address",
          "name": "to",
          "type": "address"
        },
        {
          "internalType": "uint256",
          "name": "tokenId",
          "type": "uint256"
        }
      ],
      "name": "approve",
      "outputs": [],
      "stateMutability": "nonpayable",
      "type": "function"
    },
    {
      "inputs": [
        {
          "internalType": "address",
          "name": "owner",
          "type": "address"
        }
      ],
      "name": "balanceOf",
      "outputs": [
        {
          "internalType": "uint256",
          "name": "",
          "type": "uint256"
        }
      ],
      "stateMutability": "view",
      "type": "function"
    },
    {
      "inputs": [],
      "name": "baseURI",
      "outputs": [
        {
          "internalType": "string",
          "name": "",
          "type": "string"
        }
      ],
      "stateMutability": "view",
      "type": "function"
    },
    {
      "inputs": [],
      "name": "externalURI",
      "outputs": [
        {
          "internalType": "string",
          "name": "",
          "type": "string"
        }
      ],
      "stateMutability": "view",
      "type": "function"
    },
    {
      "inputs": [
        {
          "internalType": "uint256",
          "name": "tokenId",
          "type": "uint256"
        }
      ],
      "name": "getApproved",
      "outputs": [
        {
          "internalType": "address",
          "name": "",
          "type": "address"
        }
      ],
      "stateMutability": "view",
      "type": "function"
    },
    {
      "inputs": [
        {
          "internalType": "address",
          "name": "owner",
          "type": "address"
        },
        {
          "internalType": "address",
          "name": "operator",
          "type": "address"
        }
      ],
      "name": "isApprovedForAll",
      "outputs": [
        {
          "internalType": "bool",
          "name": "",
          "type": "bool"
        }
      ],
      "stateMutability": "view",
      "type": "function"
    },
    {
      "inputs": [
        {
          "internalType": "address",
          "name": "_to",
          "type": "address"
        },
        {
          "internalType": "uint256",
          "name": "_quantity",
          "type": "uint256"
        }
      ],
      "name": "mint",
      "outputs": [],
      "stateMutability": "nonpayable",
      "type": "function"
    },
    {
      "inputs": [],
      "name": "name",
      "outputs": [
        {
          "internalType": "string",
          "name": "",
          "type": "string"
        }
      ],
      "stateMutability": "view",
      "type": "function"
    },
    {
      "inputs": [],
      "name": "nftDescription",
      "outputs": [
        {
          "internalType": "string",
          "name": "",
          "type": "string"
        }
      ],
      "stateMutability": "view",
      "type": "function"
    },
    {
      "inputs": [],
      "name": "nftName",
      "outputs": [
        {
          "internalType": "string",
          "name": "",
          "type": "string"
        }
      ],
      "stateMutability": "view",
      "type": "function"
    },
    {
      "inputs": [],
      "name": "nftSymbol",
      "outputs": [
        {
          "internalType": "string",
          "name": "",
          "type": "string"
        }
      ],
      "stateMutability": "view",
      "type": "function"
    },
    {
      "inputs": [],
      "name": "owner",
      "outputs": [
        {
          "internalType": "address",
          "name": "",
          "type": "address"
        }
      ],
      "stateMutability": "view",
      "type": "function"
    },
    {
      "inputs": [
        {
          "internalType": "uint256",
          "name": "tokenId",
          "type": "uint256"
        }
      ],
      "name": "ownerOf",
      "outputs": [
        {
          "internalType": "address",
          "name": "",
          "type": "address"
        }
      ],
      "stateMutability": "view",
      "type": "function"
    },
    {
      "inputs": [],
      "name": "renounceOwnership",
      "outputs": [],
      "stateMutability": "nonpayable",
      "type": "function"
    },
    {
      "inputs": [
        {
          "internalType": "address",
          "name": "from",
          "type": "address"
        },
        {
          "internalType": "address",
          "name": "to",
          "type": "address"
        },
        {
          "internalType": "uint256",
          "name": "tokenId",
          "type": "uint256"
        }
      ],
      "name": "safeTransferFrom",
      "outputs": [],
      "stateMutability": "nonpayable",
      "type": "function"
    },
    {
      "inputs": [
        {
          "internalType": "address",
          "name": "from",
          "type": "address"
        },
        {
          "internalType": "address",
          "name": "to",
          "type": "address"
        },
        {
          "internalType": "uint256",
          "name": "tokenId",
          "type": "uint256"
        },
        {
          "internalType": "bytes",
          "name": "_data",
          "type": "bytes"
        }
      ],
      "name": "safeTransferFrom",
      "outputs": [],
      "stateMutability": "nonpayable",
      "type": "function"
    },
    {
      "inputs": [
        {
          "internalType": "address",
          "name": "operator",
          "type": "address"
        },
        {
          "internalType": "bool",
          "name": "approved",
          "type": "bool"
        }
      ],
      "name": "setApprovalForAll",
      "outputs": [],
      "stateMutability": "nonpayable",
      "type": "function"
    },
    {
      "inputs": [
        {
          "internalType": "string",
          "name": "_bURI",
          "type": "string"
        }
      ],
      "name": "setBaseURI",
      "outputs": [],
      "stateMutability": "nonpayable",
      "type": "function"
    },
    {
      "inputs": [
        {
          "internalType": "string",
          "name": "_eURI",
          "type": "string"
        }
      ],
      "name": "setExternalURI",
      "outputs": [],
      "stateMutability": "nonpayable",
      "type": "function"
    },
    {
      "inputs": [
        {
          "internalType": "bytes4",
          "name": "interfaceId",
          "type": "bytes4"
        }
      ],
      "name": "supportsInterface",
      "outputs": [
        {
          "internalType": "bool",
          "name": "",
          "type": "bool"
        }
      ],
      "stateMutability": "view",
      "type": "function"
    },
    {
      "inputs": [],
      "name": "symbol",
      "outputs": [
        {
          "internalType": "string",
          "name": "",
          "type": "string"
        }
      ],
      "stateMutability": "view",
      "type": "function"
    },
    {
      "inputs": [
        {
          "internalType": "uint256",
          "name": "index",
          "type": "uint256"
        }
      ],
      "name": "tokenByIndex",
      "outputs": [
        {
          "internalType": "uint256",
          "name": "",
          "type": "uint256"
        }
      ],
      "stateMutability": "view",
      "type": "function"
    },
    {
      "inputs": [
        {
          "internalType": "address",
          "name": "owner",
          "type": "address"
        },
        {
          "internalType": "uint256",
          "name": "index",
          "type": "uint256"
        }
      ],
      "name": "tokenOfOwnerByIndex",
      "outputs": [
        {
          "internalType": "uint256",
          "name": "",
          "type": "uint256"
        }
      ],
      "stateMutability": "view",
      "type": "function"
    },
    {
      "inputs": [
        {
          "internalType": "uint256",
          "name": "_tokenId",
          "type": "uint256"
        }
      ],
      "name": "tokenURI",
      "outputs": [
        {
          "internalType": "string",
          "name": "",
          "type": "string"
        }
      ],
      "stateMutability": "view",
      "type": "function"
    },
    {
      "inputs": [],
      "name": "totalSupply",
      "outputs": [
        {
          "internalType": "uint256",
          "name": "",
          "type": "uint256"
        }
      ],
      "stateMutability": "view",
      "type": "function"
    },
    {
      "inputs": [
        {
          "internalType": "address",
          "name": "from",
          "type": "address"
        },
        {
          "internalType": "address",
          "name": "to",
          "type": "address"
        },
        {
          "internalType": "uint256",
          "name": "tokenId",
          "type": "uint256"
        }
      ],
      "name": "transferFrom",
      "outputs": [],
      "stateMutability": "nonpayable",
      "type": "function"
    },
    {
      "inputs": [
        {
          "internalType": "address",
          "name": "newOwner",
          "type": "address"
        }
      ],
      "name": "transferOwnership",
      "outputs": [],
      "stateMutability": "nonpayable",
      "type": "function"
    },
    {
      "inputs": [],
      "name": "withdraw",
      "outputs": [],
      "stateMutability": "nonpayable",
      "type": "function"
    },
    {
      "inputs": [
        {
          "internalType": "contract IERC20",
          "name": "_token",
          "type": "address"
        }
      ],
      "name": "withdrawTokens",
      "outputs": [],
      "stateMutability": "nonpayable",
      "type": "function"
    }
  ],
  "bytecode": "0x60806040523480156200001157600080fd5b50604051620027df380380620027df8339810160408190526200003491620002a7565b6040805180820182526008808252674e46545f3732314560c01b602080840182815285518087019096529285528401528151919291620000779160009162000134565b5080516200008d90600190602084019062000134565b505050620000aa620000a4620000de60201b60201c565b620000e2565b8151620000bf90600b90602085019062000134565b508051620000d590600c90602084019062000134565b5050506200034d565b3390565b600a80546001600160a01b038381166001600160a01b0319831681179093556040519116919082907f8be0079c531659141344cd1fd0a4f28419497f9722a3daafe3b4186f6b6457e090600090a35050565b828054620001429062000311565b90600052602060002090601f016020900481019282620001665760008555620001b1565b82601f106200018157805160ff1916838001178555620001b1565b82800160010185558215620001b1579182015b82811115620001b157825182559160200191906001019062000194565b50620001bf929150620001c3565b5090565b5b80821115620001bf5760008155600101620001c4565b634e487b7160e01b600052604160045260246000fd5b600082601f8301126200020257600080fd5b81516001600160401b03808211156200021f576200021f620001da565b604051601f8301601f19908116603f011681019082821181831017156200024a576200024a620001da565b816040528381526020925086838588010111156200026757600080fd5b600091505b838210156200028b57858201830151818301840152908201906200026c565b838211156200029d5760008385830101525b9695505050505050565b60008060408385031215620002bb57600080fd5b82516001600160401b0380821115620002d357600080fd5b620002e186838701620001f0565b93506020850151915080821115620002f857600080fd5b506200030785828601620001f0565b9150509250929050565b600181811c908216806200032657607f821691505b6020821081036200034757634e487b7160e01b600052602260045260246000fd5b50919050565b612482806200035d6000396000f3fe608060405234801561001057600080fd5b50600436106101ce5760003560e01c806355f804b31161010457806395d89b41116100a2578063d08b4add11610071578063d08b4add146103aa578063e985e9c5146103bd578063f2fde38b146103f9578063f71373f01461040c57600080fd5b806395d89b4114610369578063a22cb46514610371578063b88d4fde14610384578063c87b56dd1461039757600080fd5b80636c0360eb116100de5780636c0360eb1461033557806370a082311461033d578063715018a6146103505780638da5cb5b1461035857600080fd5b806355f804b3146103075780635ecf091f1461031a5780636352211e1461032257600080fd5b806323b872dd1161017157806340c10f191161014b57806340c10f19146102bb57806342842e0e146102ce57806349df728c146102e15780634f6ccce7146102f457600080fd5b806323b872dd1461028d5780632f745c59146102a05780633ccfd60b146102b357600080fd5b8063081812fc116101ad578063081812fc1461023b578063095ea7b31461026657806312c0f3d3146101d357806318160ddd1461027b57600080fd5b80628bfb00146101d357806301ffc9a71461021057806306fdde0314610233575b600080fd5b6101fa604051806040016040528060088152602001674e46545f3732314560c01b81525081565b6040516102079190611c93565b60405180910390f35b61022361021e366004611cc3565b610448565b6040519015158152602001610207565b6101fa610473565b61024e610249366004611ce0565b610505565b6040516001600160a01b039091168152602001610207565b610279610274366004611d0e565b61059f565b005b6008545b604051908152602001610207565b61027961029b366004611d3a565b6106b4565b61027f6102ae366004611d0e565b6106e5565b61027961077b565b6102796102c9366004611d0e565b61082f565b6102796102dc366004611d3a565b6108a6565b6102796102ef366004611d7b565b6108c1565b61027f610302366004611ce0565b610a11565b610279610315366004611d98565b610aa4565b6101fa610b35565b61024e610330366004611ce0565b610bc3565b6101fa610c3a565b61027f61034b366004611d7b565b610c47565b610279610cce565b600a546001600160a01b031661024e565b6101fa610d22565b61027961037f366004611e18565b610d31565b610279610392366004611e67565b610d3c565b6101fa6103a5366004611ce0565b610d74565b6102796103b8366004611d98565b610de1565b6102236103cb366004611f47565b6001600160a01b03918216600090815260056020908152604080832093909416825291909152205460ff1690565b610279610407366004611d7b565b610e66565b6101fa6040518060400160405280601c81526020017f47656e6572696320455243373231456e756d657261626c65204e46540000000081525081565b60006001600160e01b0319821663780e9d6360e01b148061046d575061046d82610f1c565b92915050565b60606000805461048290611f75565b80601f01602080910402602001604051908101604052809291908181526020018280546104ae90611f75565b80156104fb5780601f106104d0576101008083540402835291602001916104fb565b820191906000526020600020905b8154815290600101906020018083116104de57829003601f168201915b5050505050905090565b6000818152600260205260408120546001600160a01b03166105835760405162461bcd60e51b815260206004820152602c60248201527f4552433732313a20617070726f76656420717565727920666f72206e6f6e657860448201526b34b9ba32b73a103a37b5b2b760a11b60648201526084015b60405180910390fd5b506000908152600460205260409020546001600160a01b031690565b60006105aa82610bc3565b9050806001600160a01b0316836001600160a01b0316036106175760405162461bcd60e51b815260206004820152602160248201527f4552433732313a20617070726f76616c20746f2063757272656e74206f776e656044820152603960f91b606482015260840161057a565b336001600160a01b0382161480610633575061063381336103cb565b6106a55760405162461bcd60e51b815260206004820152603860248201527f4552433732313a20617070726f76652063616c6c6572206973206e6f74206f7760448201527f6e6572206e6f7220617070726f76656420666f7220616c6c0000000000000000606482015260840161057a565b6106af8383610f6c565b505050565b6106be3382610fda565b6106da5760405162461bcd60e51b815260040161057a90611faf565b6106af8383836110d1565b60006106f083610c47565b82106107525760405162461bcd60e51b815260206004820152602b60248201527f455243373231456e756d657261626c653a206f776e657220696e646578206f7560448201526a74206f6620626f756e647360a81b606482015260840161057a565b506001600160a01b03919091166000908152600660209081526040808320938352929052205490565b600a546001600160a01b031633146107c35760405162461bcd60e51b8152602060048201819052602482015260008051602061242d833981519152604482015260640161057a565b604051600090339047908381818185875af1925050503d8060008114610805576040519150601f19603f3d011682016040523d82523d6000602084013e61080a565b606091505b505090508061082c576040516367b2cd0560e01b815260040160405180910390fd5b50565b600a546001600160a01b031633146108775760405162461bcd60e51b8152602060048201819052602482015260008051602061242d833981519152604482015260640161057a565b60005b818110156106af576108948361088f60085490565b611278565b8061089e81612016565b91505061087a565b6106af83838360405180602001604052806000815250610d3c565b600a546001600160a01b031633146109095760405162461bcd60e51b8152602060048201819052602482015260008051602061242d833981519152604482015260640161057a565b6040516370a0823160e01b81523060048201526000906001600160a01b0383169063a9059cbb90339083906370a0823190602401602060405180830381865afa15801561095a573d6000803e3d6000fd5b505050506040513d601f19601f8201168201806040525081019061097e919061202f565b6040516001600160e01b031960e085901b1681526001600160a01b03909216600483015260248201526044016020604051808303816000875af11580156109c9573d6000803e3d6000fd5b505050506040513d601f19601f820116820180604052508101906109ed9190612048565b905080610a0d576040516367b2cd0560e01b815260040160405180910390fd5b5050565b6000610a1c60085490565b8210610a7f5760405162461bcd60e51b815260206004820152602c60248201527f455243373231456e756d657261626c653a20676c6f62616c20696e646578206f60448201526b7574206f6620626f756e647360a01b606482015260840161057a565b60088281548110610a9257610a92612065565b90600052602060002001549050919050565b600a546001600160a01b03163314610aec5760405162461bcd60e51b8152602060048201819052602482015260008051602061242d833981519152604482015260640161057a565b610af8600b8383611ba2565b507ff9c7803e94e0d3c02900d8a90893a6d5e90dd04d32a4cfe825520f82bf9f32f6600b604051610b29919061207b565b60405180910390a15050565b600c8054610b4290611f75565b80601f0160208091040260200160405190810160405280929190818152602001828054610b6e90611f75565b8015610bbb5780601f10610b9057610100808354040283529160200191610bbb565b820191906000526020600020905b815481529060010190602001808311610b9e57829003601f168201915b505050505081565b6000818152600260205260408120546001600160a01b03168061046d5760405162461bcd60e51b815260206004820152602960248201527f4552433732313a206f776e657220717565727920666f72206e6f6e657869737460448201526832b73a103a37b5b2b760b91b606482015260840161057a565b600b8054610b4290611f75565b60006001600160a01b038216610cb25760405162461bcd60e51b815260206004820152602a60248201527f4552433732313a2062616c616e636520717565727920666f7220746865207a65604482015269726f206164647265737360b01b606482015260840161057a565b506001600160a01b031660009081526003602052604090205490565b600a546001600160a01b03163314610d165760405162461bcd60e51b8152602060048201819052602482015260008051602061242d833981519152604482015260640161057a565b610d2060006113c6565b565b60606001805461048290611f75565b610a0d338383611418565b610d463383610fda565b610d625760405162461bcd60e51b815260040161057a90611faf565b610d6e848484846114e6565b50505050565b6000818152600260205260409020546060906001600160a01b031615151515600003610db357604051634c067a5960e01b815260040160405180910390fd5b6000610dbd611519565b5111610dd8576040518060200160405280600081525061046d565b61046d82611528565b600a546001600160a01b03163314610e295760405162461bcd60e51b8152602060048201819052602482015260008051602061242d833981519152604482015260640161057a565b610e35600c8383611ba2565b507f661def630555bcee913667c40812d896fe127981e7273b78357894b4ba17c2e5600c604051610b29919061207b565b600a546001600160a01b03163314610eae5760405162461bcd60e51b8152602060048201819052602482015260008051602061242d833981519152604482015260640161057a565b6001600160a01b038116610f135760405162461bcd60e51b815260206004820152602660248201527f4f776e61626c653a206e6577206f776e657220697320746865207a65726f206160448201526564647265737360d01b606482015260840161057a565b61082c816113c6565b60006001600160e01b031982166380ac58cd60e01b1480610f4d57506001600160e01b03198216635b5e139f60e01b145b8061046d57506301ffc9a760e01b6001600160e01b031983161461046d565b600081815260046020526040902080546001600160a01b0319166001600160a01b0384169081179091558190610fa182610bc3565b6001600160a01b03167f8c5be1e5ebec7d5bd14f71427d1e84f3dd0314c0f7b2291e5b200ac8c7c3b92560405160405180910390a45050565b6000818152600260205260408120546001600160a01b03166110535760405162461bcd60e51b815260206004820152602c60248201527f4552433732313a206f70657261746f7220717565727920666f72206e6f6e657860448201526b34b9ba32b73a103a37b5b2b760a11b606482015260840161057a565b600061105e83610bc3565b9050806001600160a01b0316846001600160a01b031614806110a557506001600160a01b0380821660009081526005602090815260408083209388168352929052205460ff165b806110c95750836001600160a01b03166110be84610505565b6001600160a01b0316145b949350505050565b826001600160a01b03166110e482610bc3565b6001600160a01b0316146111485760405162461bcd60e51b815260206004820152602560248201527f4552433732313a207472616e736665722066726f6d20696e636f72726563742060448201526437bbb732b960d91b606482015260840161057a565b6001600160a01b0382166111aa5760405162461bcd60e51b8152602060048201526024808201527f4552433732313a207472616e7366657220746f20746865207a65726f206164646044820152637265737360e01b606482015260840161057a565b6111b58383836115f3565b6111c0600082610f6c565b6001600160a01b03831660009081526003602052604081208054600192906111e99084906120fe565b90915550506001600160a01b0382166000908152600360205260408120805460019290611217908490612115565b909155505060008181526002602052604080822080546001600160a01b0319166001600160a01b0386811691821790925591518493918716917fddf252ad1be2c89b69c2b068fc378daa952ba7f163c4a11628f55a4df523b3ef91a4505050565b6001600160a01b0382166112ce5760405162461bcd60e51b815260206004820181905260248201527f4552433732313a206d696e7420746f20746865207a65726f2061646472657373604482015260640161057a565b6000818152600260205260409020546001600160a01b0316156113335760405162461bcd60e51b815260206004820152601c60248201527f4552433732313a20746f6b656e20616c7265616479206d696e74656400000000604482015260640161057a565b61133f600083836115f3565b6001600160a01b0382166000908152600360205260408120805460019290611368908490612115565b909155505060008181526002602052604080822080546001600160a01b0319166001600160a01b03861690811790915590518392907fddf252ad1be2c89b69c2b068fc378daa952ba7f163c4a11628f55a4df523b3ef908290a45050565b600a80546001600160a01b038381166001600160a01b0319831681179093556040519116919082907f8be0079c531659141344cd1fd0a4f28419497f9722a3daafe3b4186f6b6457e090600090a35050565b816001600160a01b0316836001600160a01b0316036114795760405162461bcd60e51b815260206004820152601960248201527f4552433732313a20617070726f766520746f2063616c6c657200000000000000604482015260640161057a565b6001600160a01b03838116600081815260056020908152604080832094871680845294825291829020805460ff191686151590811790915591519182527f17307eab39ab6107e8899845ad3d59bd9653f200f220920489ca2b5937696c31910160405180910390a3505050565b6114f18484846110d1565b6114fd848484846116ab565b610d6e5760405162461bcd60e51b815260040161057a9061212d565b6060600b805461048290611f75565b60606000611535836117ac565b90506000604051806040016040528060088152602001674e46545f3732314560c01b8152506040518060400160405280601c81526020017f47656e6572696320455243373231456e756d657261626c65204e465400000000815250600b84600c866040516020016115ab969594939291906121ee565b604051602081830303815290604052905060006115c7826118ad565b9050806040516020016115da91906122db565b6040516020818303038152906040529350505050919050565b6001600160a01b03831661164e5761164981600880546000838152600960205260408120829055600182018355919091527ff3f7a9fe364faab93b216da50a3214154f22a0a2b415b23a84c8169e8b636ee30155565b611671565b816001600160a01b0316836001600160a01b031614611671576116718382611a12565b6001600160a01b038216611688576106af81611aaf565b826001600160a01b0316826001600160a01b0316146106af576106af8282611b5e565b60006001600160a01b0384163b156117a157604051630a85bd0160e11b81526001600160a01b0385169063150b7a02906116ef903390899088908890600401612320565b6020604051808303816000875af192505050801561172a575060408051601f3d908101601f191682019092526117279181019061235c565b60015b611787573d808015611758576040519150601f19603f3d011682016040523d82523d6000602084013e61175d565b606091505b50805160000361177f5760405162461bcd60e51b815260040161057a9061212d565b805181602001fd5b6001600160e01b031916630a85bd0160e11b1490506110c9565b506001949350505050565b6060816000036117d35750506040805180820190915260018152600360fc1b602082015290565b8160005b81156117fd57806117e781612016565b91506117f69050600a8361238f565b91506117d7565b60008167ffffffffffffffff81111561181857611818611e51565b6040519080825280601f01601f191660200182016040528015611842576020820181803683370190505b5090505b84156110c9576118576001836120fe565b9150611864600a866123a3565b61186f906030612115565b60f81b81838151811061188457611884612065565b60200101906001600160f81b031916908160001a9053506118a6600a8661238f565b9450611846565b606081516000036118cc57505060408051602081019091526000815290565b60006040518060600160405280604081526020016123ed60409139905060006003845160026118fb9190612115565b611905919061238f565b6119109060046123b7565b9050600061191f826020612115565b67ffffffffffffffff81111561193757611937611e51565b6040519080825280601f01601f191660200182016040528015611961576020820181803683370190505b509050818152600183018586518101602084015b818310156119cd576003830192508251603f8160121c168501518253600182019150603f81600c1c168501518253600182019150603f8160061c168501518253600182019150603f8116850151825350600101611975565b6003895106600181146119e757600281146119f857611a04565b613d3d60f01b600119830152611a04565b603d60f81b6000198301525b509398975050505050505050565b60006001611a1f84610c47565b611a2991906120fe565b600083815260076020526040902054909150808214611a7c576001600160a01b03841660009081526006602090815260408083208584528252808320548484528184208190558352600790915290208190555b5060009182526007602090815260408084208490556001600160a01b039094168352600681528383209183525290812055565b600854600090611ac1906001906120fe565b60008381526009602052604081205460088054939450909284908110611ae957611ae9612065565b906000526020600020015490508060088381548110611b0a57611b0a612065565b6000918252602080832090910192909255828152600990915260408082208490558582528120556008805480611b4257611b426123d6565b6001900381819060005260206000200160009055905550505050565b6000611b6983610c47565b6001600160a01b039093166000908152600660209081526040808320868452825280832085905593825260079052919091209190915550565b828054611bae90611f75565b90600052602060002090601f016020900481019282611bd05760008555611c16565b82601f10611be95782800160ff19823516178555611c16565b82800160010185558215611c16579182015b82811115611c16578235825591602001919060010190611bfb565b50611c22929150611c26565b5090565b5b80821115611c225760008155600101611c27565b60005b83811015611c56578181015183820152602001611c3e565b83811115610d6e5750506000910152565b60008151808452611c7f816020860160208601611c3b565b601f01601f19169290920160200192915050565b602081526000611ca66020830184611c67565b9392505050565b6001600160e01b03198116811461082c57600080fd5b600060208284031215611cd557600080fd5b8135611ca681611cad565b600060208284031215611cf257600080fd5b5035919050565b6001600160a01b038116811461082c57600080fd5b60008060408385031215611d2157600080fd5b8235611d2c81611cf9565b946020939093013593505050565b600080600060608486031215611d4f57600080fd5b8335611d5a81611cf9565b92506020840135611d6a81611cf9565b929592945050506040919091013590565b600060208284031215611d8d57600080fd5b8135611ca681611cf9565b60008060208385031215611dab57600080fd5b823567ffffffffffffffff80821115611dc357600080fd5b818501915085601f830112611dd757600080fd5b813581811115611de657600080fd5b866020828501011115611df857600080fd5b60209290920196919550909350505050565b801515811461082c57600080fd5b60008060408385031215611e2b57600080fd5b8235611e3681611cf9565b91506020830135611e4681611e0a565b809150509250929050565b634e487b7160e01b600052604160045260246000fd5b60008060008060808587031215611e7d57600080fd5b8435611e8881611cf9565b93506020850135611e9881611cf9565b925060408501359150606085013567ffffffffffffffff80821115611ebc57600080fd5b818701915087601f830112611ed057600080fd5b813581811115611ee257611ee2611e51565b604051601f8201601f19908116603f01168101908382118183101715611f0a57611f0a611e51565b816040528281528a6020848701011115611f2357600080fd5b82602086016020830137600060208483010152809550505050505092959194509250565b60008060408385031215611f5a57600080fd5b8235611f6581611cf9565b91506020830135611e4681611cf9565b600181811c90821680611f8957607f821691505b602082108103611fa957634e487b7160e01b600052602260045260246000fd5b50919050565b60208082526031908201527f4552433732313a207472616e736665722063616c6c6572206973206e6f74206f6040820152701ddb995c881b9bdc88185c1c1c9bdd9959607a1b606082015260800190565b634e487b7160e01b600052601160045260246000fd5b60006001820161202857612028612000565b5060010190565b60006020828403121561204157600080fd5b5051919050565b60006020828403121561205a57600080fd5b8151611ca681611e0a565b634e487b7160e01b600052603260045260246000fd5b600060208083526000845461208f81611f75565b808487015260406001808416600081146120b057600181146120c457611a04565b60ff19851689840152606089019550611a04565b896000528660002060005b858110156120ea5781548b82018601529083019088016120cf565b909901929092019998505050505050505050565b60008282101561211057612110612000565b500390565b6000821982111561212857612128612000565b500190565b60208082526032908201527f4552433732313a207472616e7366657220746f206e6f6e20455243373231526560408201527131b2b4bb32b91034b6b83632b6b2b73a32b960711b606082015260800190565b6000815461218c81611f75565b600182811680156121a457600181146121b5576121e4565b60ff198416875282870194506121e4565b8560005260208060002060005b858110156121db5781548a8201529084019082016121c2565b50505082870194505b5050505092915050565b683d913730b6b2911d1160b91b81528651600090612213816009850160208c01611c3b565b701116113232b9b1b934b83a34b7b7111d1160791b600991840191820152875161224481601a840160208c01611c3b565b6a11161134b6b0b3b2911d1160a91b601a929091019182015261226a602582018861217f565b9050855161227c818360208a01611c3b565b7f2e706e67222c2265787465726e616c5f75726c223a220000000000000000000091019081526122af601682018661217f565b905083516122c1818360208801611c3b565b61227d60f01b910190815260020198975050505050505050565b7f646174613a6170706c69636174696f6e2f6a736f6e3b6261736536342c00000081526000825161231381601d850160208701611c3b565b91909101601d0192915050565b60006001600160a01b038087168352808616602084015250836040830152608060608301526123526080830184611c67565b9695505050505050565b60006020828403121561236e57600080fd5b8151611ca681611cad565b634e487b7160e01b600052601260045260246000fd5b60008261239e5761239e612379565b500490565b6000826123b2576123b2612379565b500690565b60008160001904831182151516156123d1576123d1612000565b500290565b634e487b7160e01b600052603160045260246000fdfe4142434445464748494a4b4c4d4e4f505152535455565758595a6162636465666768696a6b6c6d6e6f707172737475767778797a303132333435363738392b2f4f776e61626c653a2063616c6c6572206973206e6f7420746865206f776e6572a264697066735822122070065d5f6a5643a8a4c6ee2d98c8782194564ebb94b1b3cbdeecfcfc1b46b03e64736f6c634300080d0033",
  "linkReferences": {},
  "deployedLinkReferences": {}
}