{
  "_format": "hh-sol-artifact-1",
  "contractName": "remote",
  "sourceName": "contracts/remote.sol",
  "abi": [
    {
      "inputs": [
        {
          "internalType": "string",
          "name": "_bURI",
          "type": "string"
        },
        {
          "internalType": "string",
          "name": "_eURI",
          "type": "string"
        }
      ],
      "stateMutability": "nonpayable",
      "type": "constructor"
    },
    {
      "inputs": [],
      "name": "invalidTokenId",
      "type": "error"
    },
    {
      "inputs": [],
      "name": "withdrawFailed",
      "type": "error"
    },
    {
      "anonymous": false,
      "inputs": [
        {
          "indexed": true,
          "internalType": "address",
          "name": "owner",
          "type": "address"
        },
        {
          "indexed": true,
          "internalType": "address",
          "name": "approved",
          "type": "address"
        },
        {
          "indexed": true,
          "internalType": "uint256",
          "name": "tokenId",
          "type": "uint256"
        }
      ],
      "name": "Approval",
      "type": "event"
    },
    {
      "anonymous": false,
      "inputs": [
        {
          "indexed": true,
          "internalType": "address",
          "name": "owner",
          "type": "address"
        },
        {
          "indexed": true,
          "internalType": "address",
          "name": "operator",
          "type": "address"
        },
        {
          "indexed": false,
          "internalType": "bool",
          "name": "approved",
          "type": "bool"
        }
      ],
      "name": "ApprovalForAll",
      "type": "event"
    },
    {
      "anonymous": false,
      "inputs": [
        {
          "indexed": false,
          "internalType": "string",
          "name": "baseURI",
          "type": "string"
        }
      ],
      "name": "BaseURISet",
      "type": "event"
    },
    {
      "anonymous": false,
      "inputs": [
        {
          "indexed": false,
          "internalType": "string",
          "name": "externalURI",
          "type": "string"
        }
      ],
      "name": "ExternalURISet",
      "type": "event"
    },
    {
      "anonymous": false,
      "inputs": [
        {
          "indexed": true,
          "internalType": "address",
          "name": "previousOwner",
          "type": "address"
        },
        {
          "indexed": true,
          "internalType": "address",
          "name": "newOwner",
          "type": "address"
        }
      ],
      "name": "OwnershipTransferred",
      "type": "event"
    },
    {
      "anonymous": false,
      "inputs": [
        {
          "indexed": true,
          "internalType": "address",
          "name": "from",
          "type": "address"
        },
        {
          "indexed": true,
          "internalType": "address",
          "name": "to",
          "type": "address"
        },
        {
          "indexed": true,
          "internalType": "uint256",
          "name": "tokenId",
          "type": "uint256"
        }
      ],
      "name": "Transfer",
      "type": "event"
    },
    {
      "inputs": [
        {
          "internalType": "address",
          "name": "to",
          "type": "address"
        },
        {
          "internalType": "uint256",
          "name": "tokenId",
          "type": "uint256"
        }
      ],
      "name": "approve",
      "outputs": [],
      "stateMutability": "nonpayable",
      "type": "function"
    },
    {
      "inputs": [
        {
          "internalType": "address",
          "name": "owner",
          "type": "address"
        }
      ],
      "name": "balanceOf",
      "outputs": [
        {
          "internalType": "uint256",
          "name": "",
          "type": "uint256"
        }
      ],
      "stateMutability": "view",
      "type": "function"
    },
    {
      "inputs": [],
      "name": "baseURI",
      "outputs": [
        {
          "internalType": "string",
          "name": "",
          "type": "string"
        }
      ],
      "stateMutability": "view",
      "type": "function"
    },
    {
      "inputs": [],
      "name": "externalURI",
      "outputs": [
        {
          "internalType": "string",
          "name": "",
          "type": "string"
        }
      ],
      "stateMutability": "view",
      "type": "function"
    },
    {
      "inputs": [
        {
          "internalType": "uint256",
          "name": "tokenId",
          "type": "uint256"
        }
      ],
      "name": "getApproved",
      "outputs": [
        {
          "internalType": "address",
          "name": "",
          "type": "address"
        }
      ],
      "stateMutability": "view",
      "type": "function"
    },
    {
      "inputs": [
        {
          "internalType": "address",
          "name": "owner",
          "type": "address"
        },
        {
          "internalType": "address",
          "name": "operator",
          "type": "address"
        }
      ],
      "name": "isApprovedForAll",
      "outputs": [
        {
          "internalType": "bool",
          "name": "",
          "type": "bool"
        }
      ],
      "stateMutability": "view",
      "type": "function"
    },
    {
      "inputs": [
        {
          "internalType": "address",
          "name": "_to",
          "type": "address"
        },
        {
          "internalType": "uint256",
          "name": "_quantity",
          "type": "uint256"
        }
      ],
      "name": "mint",
      "outputs": [],
      "stateMutability": "nonpayable",
      "type": "function"
    },
    {
      "inputs": [],
      "name": "name",
      "outputs": [
        {
          "internalType": "string",
          "name": "",
          "type": "string"
        }
      ],
      "stateMutability": "view",
      "type": "function"
    },
    {
      "inputs": [],
      "name": "nftDescription",
      "outputs": [
        {
          "internalType": "string",
          "name": "",
          "type": "string"
        }
      ],
      "stateMutability": "view",
      "type": "function"
    },
    {
      "inputs": [],
      "name": "nftName",
      "outputs": [
        {
          "internalType": "string",
          "name": "",
          "type": "string"
        }
      ],
      "stateMutability": "view",
      "type": "function"
    },
    {
      "inputs": [],
      "name": "nftSymbol",
      "outputs": [
        {
          "internalType": "string",
          "name": "",
          "type": "string"
        }
      ],
      "stateMutability": "view",
      "type": "function"
    },
    {
      "inputs": [],
      "name": "owner",
      "outputs": [
        {
          "internalType": "address",
          "name": "",
          "type": "address"
        }
      ],
      "stateMutability": "view",
      "type": "function"
    },
    {
      "inputs": [
        {
          "internalType": "uint256",
          "name": "tokenId",
          "type": "uint256"
        }
      ],
      "name": "ownerOf",
      "outputs": [
        {
          "internalType": "address",
          "name": "",
          "type": "address"
        }
      ],
      "stateMutability": "view",
      "type": "function"
    },
    {
      "inputs": [],
      "name": "renounceOwnership",
      "outputs": [],
      "stateMutability": "nonpayable",
      "type": "function"
    },
    {
      "inputs": [
        {
          "internalType": "address",
          "name": "from",
          "type": "address"
        },
        {
          "internalType": "address",
          "name": "to",
          "type": "address"
        },
        {
          "internalType": "uint256",
          "name": "tokenId",
          "type": "uint256"
        }
      ],
      "name": "safeTransferFrom",
      "outputs": [],
      "stateMutability": "nonpayable",
      "type": "function"
    },
    {
      "inputs": [
        {
          "internalType": "address",
          "name": "from",
          "type": "address"
        },
        {
          "internalType": "address",
          "name": "to",
          "type": "address"
        },
        {
          "internalType": "uint256",
          "name": "tokenId",
          "type": "uint256"
        },
        {
          "internalType": "bytes",
          "name": "_data",
          "type": "bytes"
        }
      ],
      "name": "safeTransferFrom",
      "outputs": [],
      "stateMutability": "nonpayable",
      "type": "function"
    },
    {
      "inputs": [
        {
          "internalType": "address",
          "name": "operator",
          "type": "address"
        },
        {
          "internalType": "bool",
          "name": "approved",
          "type": "bool"
        }
      ],
      "name": "setApprovalForAll",
      "outputs": [],
      "stateMutability": "nonpayable",
      "type": "function"
    },
    {
      "inputs": [
        {
          "internalType": "string",
          "name": "_bURI",
          "type": "string"
        }
      ],
      "name": "setBaseURI",
      "outputs": [],
      "stateMutability": "nonpayable",
      "type": "function"
    },
    {
      "inputs": [
        {
          "internalType": "string",
          "name": "_eURI",
          "type": "string"
        }
      ],
      "name": "setExternalURI",
      "outputs": [],
      "stateMutability": "nonpayable",
      "type": "function"
    },
    {
      "inputs": [
        {
          "internalType": "bytes4",
          "name": "interfaceId",
          "type": "bytes4"
        }
      ],
      "name": "supportsInterface",
      "outputs": [
        {
          "internalType": "bool",
          "name": "",
          "type": "bool"
        }
      ],
      "stateMutability": "view",
      "type": "function"
    },
    {
      "inputs": [],
      "name": "symbol",
      "outputs": [
        {
          "internalType": "string",
          "name": "",
          "type": "string"
        }
      ],
      "stateMutability": "view",
      "type": "function"
    },
    {
      "inputs": [
        {
          "internalType": "uint256",
          "name": "index",
          "type": "uint256"
        }
      ],
      "name": "tokenByIndex",
      "outputs": [
        {
          "internalType": "uint256",
          "name": "",
          "type": "uint256"
        }
      ],
      "stateMutability": "view",
      "type": "function"
    },
    {
      "inputs": [
        {
          "internalType": "address",
          "name": "owner",
          "type": "address"
        },
        {
          "internalType": "uint256",
          "name": "index",
          "type": "uint256"
        }
      ],
      "name": "tokenOfOwnerByIndex",
      "outputs": [
        {
          "internalType": "uint256",
          "name": "",
          "type": "uint256"
        }
      ],
      "stateMutability": "view",
      "type": "function"
    },
    {
      "inputs": [
        {
          "internalType": "uint256",
          "name": "_tokenId",
          "type": "uint256"
        }
      ],
      "name": "tokenURI",
      "outputs": [
        {
          "internalType": "string",
          "name": "",
          "type": "string"
        }
      ],
      "stateMutability": "view",
      "type": "function"
    },
    {
      "inputs": [],
      "name": "totalSupply",
      "outputs": [
        {
          "internalType": "uint256",
          "name": "",
          "type": "uint256"
        }
      ],
      "stateMutability": "view",
      "type": "function"
    },
    {
      "inputs": [
        {
          "internalType": "address",
          "name": "from",
          "type": "address"
        },
        {
          "internalType": "address",
          "name": "to",
          "type": "address"
        },
        {
          "internalType": "uint256",
          "name": "tokenId",
          "type": "uint256"
        }
      ],
      "name": "transferFrom",
      "outputs": [],
      "stateMutability": "nonpayable",
      "type": "function"
    },
    {
      "inputs": [
        {
          "internalType": "address",
          "name": "newOwner",
          "type": "address"
        }
      ],
      "name": "transferOwnership",
      "outputs": [],
      "stateMutability": "nonpayable",
      "type": "function"
    },
    {
      "inputs": [],
      "name": "withdraw",
      "outputs": [],
      "stateMutability": "nonpayable",
      "type": "function"
    },
    {
      "inputs": [
        {
          "internalType": "contract IERC20",
          "name": "_token",
          "type": "address"
        }
      ],
      "name": "withdrawTokens",
      "outputs": [],
      "stateMutability": "nonpayable",
      "type": "function"
    }
  ],
  "bytecode": "0x60806040523480156200001157600080fd5b50604051620027b7380380620027b78339810160408190526200003491620002a5565b60408051808201825260068082526572656d6f746560d01b602080840182815285518087019096529285528401528151919291620000759160009162000132565b5080516200008b90600190602084019062000132565b505050620000a8620000a2620000dc60201b60201c565b620000e0565b8151620000bd90600b90602085019062000132565b508051620000d390600c90602084019062000132565b5050506200034b565b3390565b600a80546001600160a01b038381166001600160a01b0319831681179093556040519116919082907f8be0079c531659141344cd1fd0a4f28419497f9722a3daafe3b4186f6b6457e090600090a35050565b82805462000140906200030f565b90600052602060002090601f016020900481019282620001645760008555620001af565b82601f106200017f57805160ff1916838001178555620001af565b82800160010185558215620001af579182015b82811115620001af57825182559160200191906001019062000192565b50620001bd929150620001c1565b5090565b5b80821115620001bd5760008155600101620001c2565b634e487b7160e01b600052604160045260246000fd5b600082601f8301126200020057600080fd5b81516001600160401b03808211156200021d576200021d620001d8565b604051601f8301601f19908116603f01168101908282118183101715620002485762000248620001d8565b816040528381526020925086838588010111156200026557600080fd5b600091505b838210156200028957858201830151818301840152908201906200026a565b838211156200029b5760008385830101525b9695505050505050565b60008060408385031215620002b957600080fd5b82516001600160401b0380821115620002d157600080fd5b620002df86838701620001ee565b93506020850151915080821115620002f657600080fd5b506200030585828601620001ee565b9150509250929050565b600181811c908216806200032457607f821691505b6020821081036200034557634e487b7160e01b600052602260045260246000fd5b50919050565b61245c806200035b6000396000f3fe608060405234801561001057600080fd5b50600436106101ce5760003560e01c806355f804b31161010457806395d89b41116100a2578063d08b4add11610071578063d08b4add146103a8578063e985e9c5146103bb578063f2fde38b146103f7578063f71373f01461040a57600080fd5b806395d89b4114610367578063a22cb4651461036f578063b88d4fde14610382578063c87b56dd1461039557600080fd5b80636c0360eb116100de5780636c0360eb1461033357806370a082311461033b578063715018a61461034e5780638da5cb5b1461035657600080fd5b806355f804b3146103055780635ecf091f146103185780636352211e1461032057600080fd5b806323b872dd1161017157806340c10f191161014b57806340c10f19146102b957806342842e0e146102cc57806349df728c146102df5780634f6ccce7146102f257600080fd5b806323b872dd1461028b5780632f745c591461029e5780633ccfd60b146102b157600080fd5b8063081812fc116101ad578063081812fc14610239578063095ea7b31461026457806312c0f3d3146101d357806318160ddd1461027957600080fd5b80628bfb00146101d357806301ffc9a71461020e57806306fdde0314610231575b600080fd5b6101f86040518060400160405280600681526020016572656d6f746560d01b81525081565b6040516102059190611c6d565b60405180910390f35b61022161021c366004611c9d565b610435565b6040519015158152602001610205565b6101f8610460565b61024c610247366004611cba565b6104f2565b6040516001600160a01b039091168152602001610205565b610277610272366004611ce8565b61058c565b005b6008545b604051908152602001610205565b610277610299366004611d14565b6106a1565b61027d6102ac366004611ce8565b6106d2565b610277610768565b6102776102c7366004611ce8565b61081c565b6102776102da366004611d14565b610893565b6102776102ed366004611d55565b6108ae565b61027d610300366004611cba565b6109fe565b610277610313366004611d72565b610a91565b6101f8610b22565b61024c61032e366004611cba565b610bb0565b6101f8610c27565b61027d610349366004611d55565b610c34565b610277610cbb565b600a546001600160a01b031661024c565b6101f8610d0f565b61027761037d366004611df2565b610d1e565b610277610390366004611e41565b610d29565b6101f86103a3366004611cba565b610d61565b6102776103b6366004611d72565b610dce565b6102216103c9366004611f21565b6001600160a01b03918216600090815260056020908152604080832093909416825291909152205460ff1690565b610277610405366004611d55565b610e53565b6101f86040518060400160405280600c81526020016b6f636e66742072656d6f746560a01b81525081565b60006001600160e01b0319821663780e9d6360e01b148061045a575061045a82610f09565b92915050565b60606000805461046f90611f4f565b80601f016020809104026020016040519081016040528092919081815260200182805461049b90611f4f565b80156104e85780601f106104bd576101008083540402835291602001916104e8565b820191906000526020600020905b8154815290600101906020018083116104cb57829003601f168201915b5050505050905090565b6000818152600260205260408120546001600160a01b03166105705760405162461bcd60e51b815260206004820152602c60248201527f4552433732313a20617070726f76656420717565727920666f72206e6f6e657860448201526b34b9ba32b73a103a37b5b2b760a11b60648201526084015b60405180910390fd5b506000908152600460205260409020546001600160a01b031690565b600061059782610bb0565b9050806001600160a01b0316836001600160a01b0316036106045760405162461bcd60e51b815260206004820152602160248201527f4552433732313a20617070726f76616c20746f2063757272656e74206f776e656044820152603960f91b6064820152608401610567565b336001600160a01b0382161480610620575061062081336103c9565b6106925760405162461bcd60e51b815260206004820152603860248201527f4552433732313a20617070726f76652063616c6c6572206973206e6f74206f7760448201527f6e6572206e6f7220617070726f76656420666f7220616c6c00000000000000006064820152608401610567565b61069c8383610f59565b505050565b6106ab3382610fc7565b6106c75760405162461bcd60e51b815260040161056790611f89565b61069c8383836110be565b60006106dd83610c34565b821061073f5760405162461bcd60e51b815260206004820152602b60248201527f455243373231456e756d657261626c653a206f776e657220696e646578206f7560448201526a74206f6620626f756e647360a81b6064820152608401610567565b506001600160a01b03919091166000908152600660209081526040808320938352929052205490565b600a546001600160a01b031633146107b05760405162461bcd60e51b815260206004820181905260248201526000805160206124078339815191526044820152606401610567565b604051600090339047908381818185875af1925050503d80600081146107f2576040519150601f19603f3d011682016040523d82523d6000602084013e6107f7565b606091505b5050905080610819576040516367b2cd0560e01b815260040160405180910390fd5b50565b600a546001600160a01b031633146108645760405162461bcd60e51b815260206004820181905260248201526000805160206124078339815191526044820152606401610567565b60005b8181101561069c576108818361087c60085490565b611265565b8061088b81611ff0565b915050610867565b61069c83838360405180602001604052806000815250610d29565b600a546001600160a01b031633146108f65760405162461bcd60e51b815260206004820181905260248201526000805160206124078339815191526044820152606401610567565b6040516370a0823160e01b81523060048201526000906001600160a01b0383169063a9059cbb90339083906370a0823190602401602060405180830381865afa158015610947573d6000803e3d6000fd5b505050506040513d601f19601f8201168201806040525081019061096b9190612009565b6040516001600160e01b031960e085901b1681526001600160a01b03909216600483015260248201526044016020604051808303816000875af11580156109b6573d6000803e3d6000fd5b505050506040513d601f19601f820116820180604052508101906109da9190612022565b9050806109fa576040516367b2cd0560e01b815260040160405180910390fd5b5050565b6000610a0960085490565b8210610a6c5760405162461bcd60e51b815260206004820152602c60248201527f455243373231456e756d657261626c653a20676c6f62616c20696e646578206f60448201526b7574206f6620626f756e647360a01b6064820152608401610567565b60088281548110610a7f57610a7f61203f565b90600052602060002001549050919050565b600a546001600160a01b03163314610ad95760405162461bcd60e51b815260206004820181905260248201526000805160206124078339815191526044820152606401610567565b610ae5600b8383611b7c565b507ff9c7803e94e0d3c02900d8a90893a6d5e90dd04d32a4cfe825520f82bf9f32f6600b604051610b169190612055565b60405180910390a15050565b600c8054610b2f90611f4f565b80601f0160208091040260200160405190810160405280929190818152602001828054610b5b90611f4f565b8015610ba85780601f10610b7d57610100808354040283529160200191610ba8565b820191906000526020600020905b815481529060010190602001808311610b8b57829003601f168201915b505050505081565b6000818152600260205260408120546001600160a01b03168061045a5760405162461bcd60e51b815260206004820152602960248201527f4552433732313a206f776e657220717565727920666f72206e6f6e657869737460448201526832b73a103a37b5b2b760b91b6064820152608401610567565b600b8054610b2f90611f4f565b60006001600160a01b038216610c9f5760405162461bcd60e51b815260206004820152602a60248201527f4552433732313a2062616c616e636520717565727920666f7220746865207a65604482015269726f206164647265737360b01b6064820152608401610567565b506001600160a01b031660009081526003602052604090205490565b600a546001600160a01b03163314610d035760405162461bcd60e51b815260206004820181905260248201526000805160206124078339815191526044820152606401610567565b610d0d60006113b3565b565b60606001805461046f90611f4f565b6109fa338383611405565b610d333383610fc7565b610d4f5760405162461bcd60e51b815260040161056790611f89565b610d5b848484846114d3565b50505050565b6000818152600260205260409020546060906001600160a01b031615151515600003610da057604051634c067a5960e01b815260040160405180910390fd5b6000610daa611506565b5111610dc5576040518060200160405280600081525061045a565b61045a82611515565b600a546001600160a01b03163314610e165760405162461bcd60e51b815260206004820181905260248201526000805160206124078339815191526044820152606401610567565b610e22600c8383611b7c565b507f661def630555bcee913667c40812d896fe127981e7273b78357894b4ba17c2e5600c604051610b169190612055565b600a546001600160a01b03163314610e9b5760405162461bcd60e51b815260206004820181905260248201526000805160206124078339815191526044820152606401610567565b6001600160a01b038116610f005760405162461bcd60e51b815260206004820152602660248201527f4f776e61626c653a206e6577206f776e657220697320746865207a65726f206160448201526564647265737360d01b6064820152608401610567565b610819816113b3565b60006001600160e01b031982166380ac58cd60e01b1480610f3a57506001600160e01b03198216635b5e139f60e01b145b8061045a57506301ffc9a760e01b6001600160e01b031983161461045a565b600081815260046020526040902080546001600160a01b0319166001600160a01b0384169081179091558190610f8e82610bb0565b6001600160a01b03167f8c5be1e5ebec7d5bd14f71427d1e84f3dd0314c0f7b2291e5b200ac8c7c3b92560405160405180910390a45050565b6000818152600260205260408120546001600160a01b03166110405760405162461bcd60e51b815260206004820152602c60248201527f4552433732313a206f70657261746f7220717565727920666f72206e6f6e657860448201526b34b9ba32b73a103a37b5b2b760a11b6064820152608401610567565b600061104b83610bb0565b9050806001600160a01b0316846001600160a01b0316148061109257506001600160a01b0380821660009081526005602090815260408083209388168352929052205460ff165b806110b65750836001600160a01b03166110ab846104f2565b6001600160a01b0316145b949350505050565b826001600160a01b03166110d182610bb0565b6001600160a01b0316146111355760405162461bcd60e51b815260206004820152602560248201527f4552433732313a207472616e736665722066726f6d20696e636f72726563742060448201526437bbb732b960d91b6064820152608401610567565b6001600160a01b0382166111975760405162461bcd60e51b8152602060048201526024808201527f4552433732313a207472616e7366657220746f20746865207a65726f206164646044820152637265737360e01b6064820152608401610567565b6111a28383836115cd565b6111ad600082610f59565b6001600160a01b03831660009081526003602052604081208054600192906111d69084906120d8565b90915550506001600160a01b03821660009081526003602052604081208054600192906112049084906120ef565b909155505060008181526002602052604080822080546001600160a01b0319166001600160a01b0386811691821790925591518493918716917fddf252ad1be2c89b69c2b068fc378daa952ba7f163c4a11628f55a4df523b3ef91a4505050565b6001600160a01b0382166112bb5760405162461bcd60e51b815260206004820181905260248201527f4552433732313a206d696e7420746f20746865207a65726f20616464726573736044820152606401610567565b6000818152600260205260409020546001600160a01b0316156113205760405162461bcd60e51b815260206004820152601c60248201527f4552433732313a20746f6b656e20616c7265616479206d696e746564000000006044820152606401610567565b61132c600083836115cd565b6001600160a01b03821660009081526003602052604081208054600192906113559084906120ef565b909155505060008181526002602052604080822080546001600160a01b0319166001600160a01b03861690811790915590518392907fddf252ad1be2c89b69c2b068fc378daa952ba7f163c4a11628f55a4df523b3ef908290a45050565b600a80546001600160a01b038381166001600160a01b0319831681179093556040519116919082907f8be0079c531659141344cd1fd0a4f28419497f9722a3daafe3b4186f6b6457e090600090a35050565b816001600160a01b0316836001600160a01b0316036114665760405162461bcd60e51b815260206004820152601960248201527f4552433732313a20617070726f766520746f2063616c6c6572000000000000006044820152606401610567565b6001600160a01b03838116600081815260056020908152604080832094871680845294825291829020805460ff191686151590811790915591519182527f17307eab39ab6107e8899845ad3d59bd9653f200f220920489ca2b5937696c31910160405180910390a3505050565b6114de8484846110be565b6114ea84848484611685565b610d5b5760405162461bcd60e51b815260040161056790612107565b6060600b805461046f90611f4f565b6060600061152283611786565b905060006040518060400160405280600681526020016572656d6f746560d01b8152506040518060400160405280600c81526020016b6f636e66742072656d6f746560a01b815250600b84600c86604051602001611585969594939291906121c8565b604051602081830303815290604052905060006115a182611887565b9050806040516020016115b491906122b5565b6040516020818303038152906040529350505050919050565b6001600160a01b0383166116285761162381600880546000838152600960205260408120829055600182018355919091527ff3f7a9fe364faab93b216da50a3214154f22a0a2b415b23a84c8169e8b636ee30155565b61164b565b816001600160a01b0316836001600160a01b03161461164b5761164b83826119ec565b6001600160a01b0382166116625761069c81611a89565b826001600160a01b0316826001600160a01b03161461069c5761069c8282611b38565b60006001600160a01b0384163b1561177b57604051630a85bd0160e11b81526001600160a01b0385169063150b7a02906116c99033908990889088906004016122fa565b6020604051808303816000875af1925050508015611704575060408051601f3d908101601f1916820190925261170191810190612336565b60015b611761573d808015611732576040519150601f19603f3d011682016040523d82523d6000602084013e611737565b606091505b5080516000036117595760405162461bcd60e51b815260040161056790612107565b805181602001fd5b6001600160e01b031916630a85bd0160e11b1490506110b6565b506001949350505050565b6060816000036117ad5750506040805180820190915260018152600360fc1b602082015290565b8160005b81156117d757806117c181611ff0565b91506117d09050600a83612369565b91506117b1565b60008167ffffffffffffffff8111156117f2576117f2611e2b565b6040519080825280601f01601f19166020018201604052801561181c576020820181803683370190505b5090505b84156110b6576118316001836120d8565b915061183e600a8661237d565b6118499060306120ef565b60f81b81838151811061185e5761185e61203f565b60200101906001600160f81b031916908160001a905350611880600a86612369565b9450611820565b606081516000036118a657505060408051602081019091526000815290565b60006040518060600160405280604081526020016123c760409139905060006003845160026118d591906120ef565b6118df9190612369565b6118ea906004612391565b905060006118f98260206120ef565b67ffffffffffffffff81111561191157611911611e2b565b6040519080825280601f01601f19166020018201604052801561193b576020820181803683370190505b509050818152600183018586518101602084015b818310156119a7576003830192508251603f8160121c168501518253600182019150603f81600c1c168501518253600182019150603f8160061c168501518253600182019150603f811685015182535060010161194f565b6003895106600181146119c157600281146119d2576119de565b613d3d60f01b6001198301526119de565b603d60f81b6000198301525b509398975050505050505050565b600060016119f984610c34565b611a0391906120d8565b600083815260076020526040902054909150808214611a56576001600160a01b03841660009081526006602090815260408083208584528252808320548484528184208190558352600790915290208190555b5060009182526007602090815260408084208490556001600160a01b039094168352600681528383209183525290812055565b600854600090611a9b906001906120d8565b60008381526009602052604081205460088054939450909284908110611ac357611ac361203f565b906000526020600020015490508060088381548110611ae457611ae461203f565b6000918252602080832090910192909255828152600990915260408082208490558582528120556008805480611b1c57611b1c6123b0565b6001900381819060005260206000200160009055905550505050565b6000611b4383610c34565b6001600160a01b039093166000908152600660209081526040808320868452825280832085905593825260079052919091209190915550565b828054611b8890611f4f565b90600052602060002090601f016020900481019282611baa5760008555611bf0565b82601f10611bc35782800160ff19823516178555611bf0565b82800160010185558215611bf0579182015b82811115611bf0578235825591602001919060010190611bd5565b50611bfc929150611c00565b5090565b5b80821115611bfc5760008155600101611c01565b60005b83811015611c30578181015183820152602001611c18565b83811115610d5b5750506000910152565b60008151808452611c59816020860160208601611c15565b601f01601f19169290920160200192915050565b602081526000611c806020830184611c41565b9392505050565b6001600160e01b03198116811461081957600080fd5b600060208284031215611caf57600080fd5b8135611c8081611c87565b600060208284031215611ccc57600080fd5b5035919050565b6001600160a01b038116811461081957600080fd5b60008060408385031215611cfb57600080fd5b8235611d0681611cd3565b946020939093013593505050565b600080600060608486031215611d2957600080fd5b8335611d3481611cd3565b92506020840135611d4481611cd3565b929592945050506040919091013590565b600060208284031215611d6757600080fd5b8135611c8081611cd3565b60008060208385031215611d8557600080fd5b823567ffffffffffffffff80821115611d9d57600080fd5b818501915085601f830112611db157600080fd5b813581811115611dc057600080fd5b866020828501011115611dd257600080fd5b60209290920196919550909350505050565b801515811461081957600080fd5b60008060408385031215611e0557600080fd5b8235611e1081611cd3565b91506020830135611e2081611de4565b809150509250929050565b634e487b7160e01b600052604160045260246000fd5b60008060008060808587031215611e5757600080fd5b8435611e6281611cd3565b93506020850135611e7281611cd3565b925060408501359150606085013567ffffffffffffffff80821115611e9657600080fd5b818701915087601f830112611eaa57600080fd5b813581811115611ebc57611ebc611e2b565b604051601f8201601f19908116603f01168101908382118183101715611ee457611ee4611e2b565b816040528281528a6020848701011115611efd57600080fd5b82602086016020830137600060208483010152809550505050505092959194509250565b60008060408385031215611f3457600080fd5b8235611f3f81611cd3565b91506020830135611e2081611cd3565b600181811c90821680611f6357607f821691505b602082108103611f8357634e487b7160e01b600052602260045260246000fd5b50919050565b60208082526031908201527f4552433732313a207472616e736665722063616c6c6572206973206e6f74206f6040820152701ddb995c881b9bdc88185c1c1c9bdd9959607a1b606082015260800190565b634e487b7160e01b600052601160045260246000fd5b60006001820161200257612002611fda565b5060010190565b60006020828403121561201b57600080fd5b5051919050565b60006020828403121561203457600080fd5b8151611c8081611de4565b634e487b7160e01b600052603260045260246000fd5b600060208083526000845461206981611f4f565b8084870152604060018084166000811461208a576001811461209e576119de565b60ff198516898401526060890195506119de565b896000528660002060005b858110156120c45781548b82018601529083019088016120a9565b909901929092019998505050505050505050565b6000828210156120ea576120ea611fda565b500390565b6000821982111561210257612102611fda565b500190565b60208082526032908201527f4552433732313a207472616e7366657220746f206e6f6e20455243373231526560408201527131b2b4bb32b91034b6b83632b6b2b73a32b960711b606082015260800190565b6000815461216681611f4f565b6001828116801561217e576001811461218f576121be565b60ff198416875282870194506121be565b8560005260208060002060005b858110156121b55781548a82015290840190820161219c565b50505082870194505b5050505092915050565b683d913730b6b2911d1160b91b815286516000906121ed816009850160208c01611c15565b701116113232b9b1b934b83a34b7b7111d1160791b600991840191820152875161221e81601a840160208c01611c15565b6a11161134b6b0b3b2911d1160a91b601a92909101918201526122446025820188612159565b90508551612256818360208a01611c15565b7f2e706e67222c2265787465726e616c5f75726c223a220000000000000000000091019081526122896016820186612159565b9050835161229b818360208801611c15565b61227d60f01b910190815260020198975050505050505050565b7f646174613a6170706c69636174696f6e2f6a736f6e3b6261736536342c0000008152600082516122ed81601d850160208701611c15565b91909101601d0192915050565b60006001600160a01b0380871683528086166020840152508360408301526080606083015261232c6080830184611c41565b9695505050505050565b60006020828403121561234857600080fd5b8151611c8081611c87565b634e487b7160e01b600052601260045260246000fd5b60008261237857612378612353565b500490565b60008261238c5761238c612353565b500690565b60008160001904831182151516156123ab576123ab611fda565b500290565b634e487b7160e01b600052603160045260246000fdfe4142434445464748494a4b4c4d4e4f505152535455565758595a6162636465666768696a6b6c6d6e6f707172737475767778797a303132333435363738392b2f4f776e61626c653a2063616c6c6572206973206e6f7420746865206f776e6572a2646970667358221220d95bb1c7e56ec5fe3fe1d8ee61a4fb87fc86a048bf1aaac702d90f9031ce3c7a64736f6c634300080d0033",
  "linkReferences": {},
  "deployedLinkReferences": {}
}